:020000040000FA
:10800000A81E002049830000759F0000F782000031
:1080100055830000578300005983000000000000D2
:108020000000000000000000000000005B83000072
:108030005D830000000000004382000015A50000E1
:10804000C19F000051A00000EDA900006383000063
:108050006383000063830000CD950000638300000C
:10806000B5A8000063830000638300006383000001
:108070006383000063830000638300006383000068
:108080006383000063830000638300006383000058
:108090006383000063830000638300006383000048
:1080A0006383000063830000638300006383000038
:1080B00063830000638300000000000000000000F4
:1080C0006383000063830000638300006383000018
:1080D00063830000638300006383000000000000EE
:1080E0000000000000000000000000000000000090
:1080F0000000000000000000000000000000000080
:10810000000000000000000000000000000000006F
:10811000000000000000000000000000000000005F
:10812000000000000000000000000000000000004F
:10813000000000000000000000000000000000003F
:10814000000000000000000000000000000000002F
:10815000000000000000000000000000000000001F
:10816000000000000000000000000000000000000F
:1081700000000000000000000000000000000000FF
:1081800000000000000000000000000000000000EF
:1081900000000000000000000000000000000000DF
:1081A00000000000000000000000000000000000CF
:1081B00000000000000000000000000000000000BF
:1081C00000000000000000000000000000000000AF
:1081D000000000000000000000000000000000009F
:1081E000000000000000000000000000000000008F
:1081F000000000000000000000000000000000007F
:10820000DFF80CD000F0C4FE0048004709E0000091
:10821000A81E0020EFF3108072B6704780F310881C
:108220007047434A1368012B04D04FF001031360D9
:10823000404A1060404A116040484FF08051016050
:108240007047EFF3108272B63948016851B34FF0AE
:10825000000101603748016891B1EFF309811EF018
:10826000100F08BF21ED108B21E9F00F4FF0000433
:108270001EF0100F08BF012441F8044D0068016092
:108280002D490968096808C9B1E8F00F002B18BF2B
:10829000B1EC108B81F309884EF0100E002B18BF43
:1082A0002EF0100E82F310884EF0040E7047224913
:1082B0000860EFF3148222F0040282F314881D494F
:1082C0004FF0000008601A494FF0010008601C4898
:1082D0004FF47F01D0F8002041EA02010160174805
:1082E0004FF08051016017480068006880F30888EB
:1082F00061B662B670471EF0040F0CBFEFF3088042
:10830000EFF3098020E9F00F40F804ED40F804EDA8
:108310001EF0040F0CBF80F3088880F3098800B5B5
:1083200007F0CAFA5DF804EB4EF0040E7047000047
:10833000E0020020D8020020DC02002004ED00E072
:1083400020ED00E008ED00E00648804706480047C1
:10835000FEE7FEE7FEE7FEE7FEE7FEE7FEE7FEE7F5
:10836000FEE7FEE739A500000182000040EA0103B4
:108370009B0703D009E008C9121F08C0042AFAD2DB
:1083800003E011F8013B00F8013B521EF9D270479F
:10839000D2B201E000F8012B491EFBD27047002247
:1083A000F6E710B513460A4604461946FFF7F0FFF4
:1083B000204610BDCAB2401E10F8011F8A4202D0EA
:1083C0000029F9D100207047421C10F8011B002938
:1083D000FBD1801A704710B5002200E0521C835C6C
:1083E0008C5CA34201D1002BF8D1D8B2E1B2401A83
:1083F00010BD30B505460020034600E05B1C9342EB
:1084000005D2EC5CC85C201A01D1002CF6D130BD3D
:108410000FB400B58DB010A909900B9000914FF0EA
:10842000FF300A9000200C90054806900548079000
:108430006A4609A80F9900F0E1FB0DB05DF814FB46
:10844000198C0000378C00002DE9FF5F1D464FF0AE
:10845000FF3BD5E9014691465F464FF00008A96908
:108460007F1C01988847296A824688470028F6D1F0
:10847000BAF1FF3F0CD024F4C064002E19DD600671
:1084800014D5BAF12B0F09D0BAF12D0F0ED103E09C
:10849000584604B0BDE8F09F44F48064A9697F1C8D
:1084A00001988847761E8246002E02DDBAF1300F11
:1084B00003D0B9F1000F26D032E0A969761E44F44A
:1084C00000747F1C019888478246002E05DDBAF1B2
:1084D000780F06D0BAF1580F03D0B9F1000F10D0C1
:1084E0001EE0B9F1000F02D0B9F1100F18D1A9693F
:1084F000761E24F400747F1C019888478246102061
:1085000002E0082000E00A20814609E008FB090893
:10851000A969761E44F400747F1C0198884782463E
:10852000002E05DD4946504600F053FB0028EDDAE9
:10853000E96901988847A00502D46FF00100A8E717
:10854000E00725D1600613D5600502D5C8F100000B
:1085500000E0404629680A1D2A600968220501D505
:10856000087015E0220701D5088011E008600FE0CF
:108570002868011D29600068210502D580F8008067
:1085800006E0210702D5A0F8008001E0C0F80080D5
:1085900038467EE72DE9FF5FD2E901A74FF00008DA
:1085A000916999461446DDF838B0464601988847E7
:1085B000054659EA0B0005D009E0A169761C01982F
:1085C00088470546216A284688470028F5D1681C57
:1085D00003D05FEACA7005D015E04FF0FF3004B059
:1085E000BDE8F09F2068011D2160D0F800800AE0FE
:1085F0005FEACA7001D108F8015BA169761C7F1E91
:10860000019888470546002F1ADD681C18D0B9F17B
:10861000000F0DD0E81705EBD060421120F01F00CD
:1086200059F822102A1A012090400142E0D107E0B7
:10863000BBF1000FDCD1216A284688470028D7D03B
:10864000E16901988847BBF1000F07D1002E05DDD5
:108650005FEACA7002D1002188F80010A068B84211
:1086600003DDBBF1000F03D017B16FF00100B6E7D7
:108670003046B4E72DE9F05F93460F468046044646
:10868000002602F00DFBD0F80090824614F8015B42
:108690002DB100F091FA0068405DC007F6D12B2D96
:1086A00002D02D2D1AD0641E0021CAF800105A469F
:1086B0003946204600F0D0FA014627B13868A0427A
:1086C00001D1C7F80080DAF80000022809D0CAF802
:1086D0000090700505D54842BDE8F09F46F48066DD
:1086E000E2E70846F8E770B5064602F0D9FA0468F2
:1086F00005460A220021304600F0FDFA2C6070BDCC
:108700002DE9FE4F804681EA0300C00F0C46009021
:1087100021F0004123F00045B8EB0200A94105D249
:108720004046214690461C460B46024623F0004038
:10873000104347D0270DC7F30A00C3F30A51029034
:10874000401A019040286BDAC3F3130040F4801BF9
:108750000098924620B10023D2EB030A63EB0B0B87
:1087600001985946C0F14002504600F0F3F9064620
:108770000D4650465946019A00F00BFA10EB0800DE
:108780006141002487EA115284EAE7731A4340D01A
:10879000009A62B3019A012A4FEA075215DC001BC6
:1087A00061EB02014FF0004202EA0752CDE90042BC
:1087B000001C41F5801132462B4600F01AFB03B035
:1087C000BDE8F08F40462146F9E7001B61EB02014E
:1087D000001C41F5801300185B412018A2F500171A
:1087E00047EB030140EAD570B6196D4111E06D0801
:1087F0004FEA360645EAC0754FEA0752001B61EBA7
:108800000201001C41F5801149084FEA30000019AF
:10881000514132462B4603B0BDE8F04F00F0DABAC2
:108820000098012240000023D0EB020263EBE073CA
:10883000009821464FEAE074B8EB000061EB0401B8
:10884000E9E783F000435BE781F0004158E72DE959
:10885000FE4F81EA030404F0004421F0004100943B
:108860004FF0000B23F0004350EA01045ED052EABF
:1088700003045BD0C3F30A54C1F30A552C44A4F299
:10888000F3340194A0FB0254C1F3130141F48011AD
:10889000C3F3130343F4801301FB024400FB034EB4
:1088A000840A970A44EA815447EA8357A4FB07687D
:1088B00002958D0A05FB07854FEA932C04FB0C54A7
:1088C0002705029D4FEA065847EA1637B5EB08051B
:1088D0006EEB070C870E920E47EA811742EA83126D
:1088E000A7FB0201B6EB0B0164EB00042B0D43EA7E
:1088F0000C335E1844EB1C50DA465146E7FB02018C
:10890000C5F313044FEA0B3343EA14534FEA04321E
:10891000019C43EA0603A4F10C040294009CCDE9F7
:1089200000B400F066FA03B0BDE8F08F0020014605
:10893000F9E72DE9F04D81EA030404F0004B21F042
:10894000004514464FF0000A23F0004150EA0502AA
:1089500020D054EA01021DD0C5F30A570246C5F3E0
:108960001303C1F31300C1F30A5640F4801543F416
:108970008013A7EB0608101BD64608F2FD3873EBF0
:10898000050002D308F1010801E092185B41B8F13B
:10899000000F03DA00200146BDE8F08D00204FF4FF
:1089A0008011064684460EE0171B73EB050705D3BE
:1089B000121B63EB050306434CEA010C49084FEA1E
:1089C000300092185B4150EA0107EDD152EA0300F2
:1089D00012D082EA040083EA0501084305D0101B87
:1089E000AB4106D20122002306E000224FF00043F3
:1089F00002E06FF0010253101AEB06004CEB085135
:108A000010EB0A0041EB0B01BDE8F04D00F0E2B9BC
:108A10000EB540F2334102910021CDE900110A4622
:108A20000B4600F0E6F903B000BD70B5C1F30A5281
:108A300001F000450024C1F3130140F2FF3341F47B
:108A400080119A4201DA002070BD40F233439A420D
:108A5000A2F2334203DC524200F08BF800E0904077
:108A60002C43F1D0404270BD00F0004230F0004095
:108A70000AD0C10D01F56071C0F3160042EA015140
:108A8000C20840071143704700200146704701F0BB
:108A9000004330B421F0004150EA010206D00A0D33
:108AA000A2F56072C1F31301002A02DC30BC002081
:108AB0007047440F44EAC104C100E01830BC00EB29
:108AC000C25000F050B930B50B46014600202022BC
:108AD000012409E021FA02F59D4205D303FA02F5CB
:108AE000491B04FA02F52844151EA2F10102F1DC2B
:108AF00030BD2DE9F05F0546002092469B46884632
:108B00000646814640241BE0284641464746224609
:108B100000F02FF853465A46C01A914110D311461F
:108B20001846224600F016F82D1A67EB01084F464A
:108B300022460120002100F00DF817EB00094E41FC
:108B4000201EA4F10104DFDC484631462A46434694
:108B5000BDE8F09F202A04DB203A00FA02F1002051
:108B600070479140C2F1200320FA03F3194390406B
:108B70007047202A04DB203A21FA02F000217047D6
:108B800021FA02F3D040C2F1200291400843194675
:108B90007047202A06DBCB17203A41FA02F043EA5D
:108BA000E07306E041FA02F3D040C2F120029140A6
:108BB000084319467047000000487047EC2C01003C
:108BC00010B50446FFF7F8FF0068005D00F00100F3
:108BD00010BD3A2800D2303820F02002412A01D3BB
:108BE000A2F13700884201D34FF0FF3070470000F8
:108BF000026811441378016018467047D160044937
:108C000051610449116200211161114600F0D2B98D
:108C1000F18B0000C18B0000426842B1016811F87D
:108C2000013B23B1521EC0E90012184670470121D2
:108C3000C160881E704742685AB1C368016843B971
:108C400083688B4205D0491E521CC0E900120020E7
:108C500070474FF0FF3070472DE9F05F8246007893
:108C6000002715468B460AF10104B946302801D089
:108C70009DB113E014F8010B0127782803D0582880
:108C800001D045B10AE00DB1102D07D10027102504
:108C900014F8010B02E0082500E00A250026B04682
:108CA0000EE005FB080005FB06F1012701EB10466D
:108CB0001FFA80F8B6F5803F00D3B94614F8010BCF
:108CC0002946FFF786FF0028EBDABBF1000F05D03D
:108CD0000FB1641E00E05446CBF80040B9F1000F1C
:108CE00006D001F0DDFF02210160C81EBDE8F09F43
:108CF00048EA0640FAE72DE9F04791460F468046DC
:108D00000446002614F8015B2DB1FFF755FF0068FB
:108D1000405DC007F6D12B2D02D02D2D18D0641E3A
:108D20004A4639462046FFF797FF27B13968A142E6
:108D300001D1C7F8008071054FF002040BD5404205
:108D4000002803DD01F0ACFF0460A007BDE8F08758
:108D500046F48066E4E70028F8DA01F0A1FF046039
:108D60006FF00040F2E70029A8BF7047401C49009F
:108D700008BF20F00100704710B4B0FA80FC00FA80
:108D80000CF050EA010404BF10BC704749B1CCF1AB
:108D9000200421FA04F411FA0CF118BF0121214337
:108DA0000843A3EB0C01CB1D4FEA00614FEA1020F2
:108DB00042BF002010BC704700EBC3501044002994
:108DC000A4BF10BC7047401C490008BF20F0010040
:108DD00010BC704710B5141E73F1000408DA401C73
:108DE00041F1000192185B411A4301D120F00100CA
:108DF00010BD2DE9F04D92469B4611B1B1FA81F2BA
:108E000002E0B0FA80F220329046FFF7A3FE04465B
:108E10000F4640EA0A0041EA0B0153465A4608430E
:108E200013D0114653EA010019D0C8F14002504650
:108E3000FFF79FFE05460E46504659464246FFF74D
:108E400089FE084305D0012004E020463946BDE8EC
:108E5000F08D0020054346EAE0762C4337430A981C
:108E60006305E40AA0EB08000022FD0A44EA475427
:108E70000A3002D500200146E9E7010510196941D1
:108E8000DDE9084500196941BDE8F04DA2E72DE98B
:108E9000F04D00231A461B1A8A4103DB00200146CD
:108EA000BDE8F08DC1F30A52C1F3130141F48015FE
:108EB0004FF0000BD10702D100186D41521E002760
:108EC000044640F2FF11384601EB620A3E468046F6
:108ED000024600204FF48011FFF74BFEC21971418A
:108EE000BB1846EB0100B4EB030C75EB000C04D38C
:108EF000E41A65EB000517460E46241908F1010037
:108F00006D4180463428E3DDF91946EB0600091B64
:108F1000A84103D24FF0FF32134601E0002213466E
:108F20001BEB070046EB0A51BDE8F04DFFF752BFBF
:108F3000C1F30A52C1F3130140F2FF3341F480112F
:108F40009A4202DA00200146704740F233439A42C7
:108F5000A2F2334202DC5242FFF70BBEFFF7FABD2A
:108F600030B5041E71F1000404DB4FF000444042B0
:108F700064EB0101141E73F1000405DB1C464FF085
:108F80000043524263EB0403994208BF904230BD54
:108F9000064C074D06E0E06840F0010394E8070046
:108FA00098471034AC42F6D3FFF72EF9EC350100A8
:108FB0000C3601002DE9F34F8BB04FF0000801F1A2
:108FC0000C000C464FF0010B46460DF1080A0190CB
:108FD0006269012101989047051E2DD0252D2CD0C6
:108FE000216A8847C0B16269012101989047216ACE
:108FF00088470028F7D1411E62690198904700E038
:10900000761CA1690B988847216A88470028F7D108
:10901000E1690B988847DBE7A1690B988847074609
:10902000A84201D1761CD3E7E1690B9888477F1CE1
:1090300002D1B8F1000F6FD046E1002762693D46CA
:109040003946019890472A2804D162690121019884
:1090500090470125DFF884926269012101989047C9
:10906000A0F130010A290AD24F45E5DC07EB870160
:1090700000EB4107303FDFD445F01005ECE7E9068F
:1090800001D46FF000476C280AD04C2814D068280F
:1090900015D06A280DD074281CD07A281AD01DE06B
:1090A00062690121019890476C2802D045F00405BF
:1090B00014E045F002050DE045F020050AE0626984
:1090C000012101989047682802D045F0080505E085
:1090D00045F400656269012101989047C4E9015790
:1090E00065283DD019DC58287AD00CDC452837D0CB
:1090F00004DC252826D0412831D131E046282FD064
:1091000047282CD12CE05B2877D0612828D0632811
:109110007CD0642823D15AE0D0E06F2848D008DC06
:1091200066281DD067281BD0692821D06E2816D14B
:1091300027E0702845D0732868D0752847D0782854
:109140000DD14DE0A1690B988847054625283FF4CD
:1091500069AFE1690B9888476D1C3FF46AAFB3E0D3
:1091600023466A466FF001000B99AFF300809EE042
:1091700045F040006060A80723464FF0000236D457
:109180003EE0E8077FF447AF2068011D21600068DA
:10919000290501D506701BE7290701D5068017E7C9
:1091A000A90703D5F117C0E9006111E706600FE7D1
:1091B00045F040006060A80723464FF0080216D42F
:1091C0001EE040F60E0125EA0100606016E045F061
:1091D00040006060A80723464FF00A0207D40FE062
:1091E00045F040006060A80708D5234610226FF0C4
:1091F00001000B99AFF3008059E007E023461022ED
:109200006FF001000B99FFF71FF950E04FF00009D4
:109210004F464B46632802D05B2806D040E0E80664
:1092200001D40120A06001273AE062690121019880
:1092300090475E2805D14FF00109626949460198BF
:109240009047216939B900210A46534643F8212045
:10925000491C0829FADBB0B3216969B9C11700EBD1
:10926000D16253110AEB830122F01F02821A0120FE
:109270000B68904003430B6062690121019890479D
:109280005D28E8D1B9F1000F09D00020514651F80E
:109290002020D24341F82020401C0828F7DB02ABF5
:1092A000224600976FF001000B99FFF773F9002831
:1092B0000CDA401C08D1BBF1000F05D04FF0FF3095
:1092C0000DB0BDE8F08FFFE74046F9E7E90701D1AF
:1092D00008F1010806444FF0000B79E6CCCCCC0C29
:1092E00070B58C1810F8015B15F0070301D110F868
:1092F000013B2A1106D110F8012B03E010F8016B95
:1093000001F8016B5B1EF9D12B0705D40023521E17
:109310000DD401F8013BFAE710F8013BCB1A921C7F
:1093200003E013F8015B01F8015B521EF9D5A1427D
:10933000D8D3002070BD000010B508680022114687
:10934000401CFFF797F904460B49A0F516608842C8
:1093500084BF012010BD214608A009F09DF80A48ED
:10936000416CA14205D044644FF4E271203009F011
:109370004BF9002010BD0000207B1E0042415544E7
:109380003D25640D0A00000080030020002001221A
:1093900091078A600A60064A0649136813F0010FB4
:1093A00001D000207047401C8842F6DB0120704746
:1093B0000C040040A08601000548016841F080715E
:1093C00001600448016841F001010160704700003C
:1093D000FCED00E0001000E04FF0E020016941F0FA
:1093E000040101616FF07F4141610648074A064967
:1093F0000068B0FBF2F04FF47A72086050434860A6
:1094000070470000580300209C01002040420F00DC
:1094100010B5086800221146401CFFF72BF90549DA
:109420000028086C0CBF20F0010040F00100086427
:10943000002010BD800300202DE9F0470D462420B8
:1094400006F096FD06460C2006F092FD0746242005
:1094500006F08EFD80460C2006F08AFD2E4C8146DB
:10946000242204F59671304606F050FF0C2204F5D4
:10947000A871384606F04AFF242204F5B67140462A
:1094800006F044FF0C2204F5C871484606F03EFF82
:1094900003F08EFD03F008FE2422314604F5967099
:1094A00006F034FF0C22394604F5A87006F02EFFB2
:1094B0002422414604F5B67006F028FF0C224946E6
:1094C00004F5C87006F022FF14A1286807F09CFE7E
:1094D00038B904F5927003F077FA04F5B27003F02E
:1094E00073FA4FF4E27104F1200009F08DF8304670
:1094F00006F070F9384606F06DF9404606F06AF954
:10950000484606F067F9074808F0C6FF72B606F04D
:10951000CBF90020BDE8F087800300203D52455381
:1095200045540000CCA40000094B022119600949F0
:109530000A68002AFCD0084A106008680028FCD09D
:109540000020186008680028FCD000207047000048
:1095500004E5014000E4014008E501404FF480507B
:10956000704770472DE9F04F0023002A27D9DFF814
:1095700054C0154F4FF0FF084FF001099A46C51827
:1095800005F00304A543E400CE5C08FA04FED5F818
:1095900000B006FA04F42BEA0E0B04EB0B06C7F836
:1095A0000090DCF80040002CFBD02E60DCF800407E
:1095B000002CFBD0C7F800A05B1C9342DFD3002037
:1095C000BDE8F08F00E4014004E501402DE9F041E1
:1095D00006F032FC154F002407F108052646A000CE
:1095E00000F1804000F5C040D0F80011012916D1EB
:1095F0003346C0F80061395D002015F830208A42FA
:1096000002D105EBC00302E0401C2028F5D3002B5B
:109610001CBF5968002902D04FF000008847641C25
:10962000082CDCDBBDE8F04106F020BC90000020F7
:1096300070B50C4605460A2A4AD2DFE802F0051941
:109640000F49234949492332FF22284600F048FFA9
:1096500000222146284600F08FF839E001222846F2
:1096600000F03EFF00222146284600F085F82FE05A
:109670000022284600F034FF00222146284600F050
:109680007BF825E0042A4FF0010000FA04F00CBF3B
:1096900010491149086001222146284600F06CF863
:1096A00016E00122284600F067F80A490120A04090
:1096B0000860A00000F1A041D1F8000720F4E060AC
:1096C000C1F80007D1F8000740F4C060C1F80007F6
:1096D000284670BD080500500C050050024800687F
:1096E000C84000F00100704710050050012088407C
:1096F000002A14BF0149024908607047080500505C
:109700000C05005010B41B4A01234FF0400C0828F0
:1097100029D2DFE800F0040B0E1114171A210029DA
:1097200014BFC2F80433C2F808331CE00220A9B900
:1097300017E0042091B914E0082079B911E0102055
:1097400061B90EE0202049B90BE0002914BFC2F82E
:1097500004C3C2F808C306E0802011B1C2F80403B4
:1097600001E0C2F808034FF0E020C0F800C110BCCF
:109770000020704700600040880000F1A040D0F851
:10978000003723F00203C0F8003701208840012A87
:1097900002BF06490860704705490860091D086056
:1097A000081D016821F00101016070471805005093
:1097B0001C05005010B586B0086804AB6A4630A19D
:1097C000FEF726FE022810D12FA16846FEF703FE01
:1097D0002E4C68B12EA16846FEF7FDFD08B32DA101
:1097E0006846FEF7F8FD002834D006B0012010BD11
:1097F00029A0049906F096FBD4F8C00004994FF410
:109800007F4220F47F4002EA01210843C4F8C000EF
:109810004FF4E27104F1200008F0F6FE06B00020DB
:1098200010BD24A0049906F07DFBD4F8C000049973
:109830004FF47F0220F47F0002EA01410843C4F89C
:10984000C0004FF4E27104F1200008F0DDFE06B024
:10985000002010BD1CA0049906F064FBD4F8C000E1
:10986000049920F07F4040EA0160C4F8C0004FF442
:10987000E27104F1200008F0C7FE06B0002010BD20
:109880003D2533732C256400434E54008003002093
:1098900046525100524F4C00646576696365206DF5
:1098A000617820636E742073657420746F3A256448
:1098B0000D0A000072662066727120736574207450
:1098C0006F3A25640D0A0000726620726F6C652085
:1098D00073657420746F3A25640D0A0070B50C46E8
:1098E0000868FEF771FD104DB8B1206800221146DE
:1098F000401CFEF7BFFE042814D8D5F8C010C0B233
:1099000021F0FF010843C5F8C0004FF4E27105F1F2
:10991000200008F079FE002070BD95F8C01003A06B
:1099200008F0BAFD012070BD8003002025640D0AF7
:109930000000000070B50C460868FEF745FD104DAC
:10994000B8B1206800221146401CFEF793FEFF28A4
:1099500014D8D5F8C010C0B221F0FF010843C5F8F3
:10996000C0004FF4E27105F1200008F04DFE002028
:1099700070BD95F8C01003A008F08EFD012070BDE9
:109980008003002025640D0A00000000002812BF9B
:109990000020014800687047580300200148006813
:1099A00070470000000400404FF080510A6E0260D2
:1099B000496E416070470000084A094981B010783B
:1099C00051F82000D0F810110029FBD00021C0F878
:1099D000101150788DF8000001B07047C4010020CC
:1099E0004427010070B50C460868FEF7EDFC0C4DED
:1099F00088B1206800221146401CFEF73BFE296B0F
:109A0000814206D028634FF4E27105F1200008F08E
:109A1000FBFD002070BD03A0296B08F03DFDF8E7B9
:109A20008003002025640D0A0000000030B50C46BC
:109A3000086883B0ACA1FEF7CEFCAC4D28B1ACA158
:109A40002068FEF7C8FC002825D1AAA10620CDE990
:109A5000000100230122DE21A9A008F01DFDB0A015
:109A600008F01AFDB748AA6EB7A150F82230B8A086
:109A700008F012FDBAA1BBA02A6B08F00DFDD5E9D4
:109A80000A23BBA1BCA008F007FDA86CBDA1020C75
:109A9000BEA008F001FDC0A12068FEF79CFC0028D4
:109AA00020D1B5F8B622BEA1B8A008F0F5FCBEA141
:109AB000C0A0D5F8AC2208F0EFFC95F88000C149B1
:109AC00000F00F000A5CC0A1C1A008F0E5FCD5F8C9
:109AD00080001E2101EAD000C0490A5AC0A1C2A0DC
:109AE00008F0DAFCC4A12068FEF775FC48B907F05D
:109AF00077FFC349A1FB00104209C2A1C3A008F02F
:109B0000CBFCC5A12068FEF766FC002838D105F51E
:109B10009271C3A002F0BAFE032205F5A871C2A09B
:109B200002F008FF032205F51E71C2A002F002FF39
:109B300005F5B271C2A002F0A9FE032205F5C871B5
:109B4000B9A002F0F7FE032205F51B71BEA002F0DA
:109B5000F1FE05F5D271BFA002F098FE032205F5D3
:109B6000E871B1A002F0E6FED5F88C00FEF77CFFAC
:109B700041EC100BB9A153EC102BBAA008F08CFCEF
:109B8000BBA12068FEF727FC002841D174A1BAA030
:109B90002A6B08F081FC6CA1B7A0AA6E08F07CFCCF
:109BA00095F8C020B7A1B4A008F076FCB7A1B2A088
:109BB0006A6C08F071FCB7A1AFA0AA6D08F06CFC4C
:109BC000B7A1B9A06A6D08F067FCD5F88400FEF76C
:109BD0004BFF41EC100BB7A153EC102BB7A008F0D2
:109BE0005BFCD5F88800FEF73FFF41EC100BB7A1F6
:109BF00053EC102BB1A008F04FFCB5F8B822B6A179
:109C00009DA008F049FC05F1E401B6A002F03EFE7B
:109C1000B6A12068FEF7DFFB00281CD195F8C02014
:109C200098A195A008F038FCB5F8C000B0A1C0F329
:109C3000072291A008F030FCD5F8C000B0A1C0F315
:109C400007428DA008F028FCD5F8C000AEA1020E96
:109C500089A008F021FCAEA12068FEF7BCFB40B94A
:109C600004F05AF803F06CFE6422ABA147A008F0A0
:109C700013FCABA12068FEF7AEFB002831D1B5F88C
:109C8000A400A9A1C0F307227BA008F005FCD5F829
:109C9000A800FEF7E9FE41EC100BA5A153EC102B38
:109CA000A5A008F0F9FB95F8A420A6A1A8A008F0AB
:109CB000F3FBD5F8AC00FEF7D7FE41EC100BA7A1E3
:109CC00053EC102B9CA008F0E7FBD5F8B000FEF792
:109CD000CBFE41EC100BA3A153EC102B96A008F087
:109CE000DBFB03B0002030BD00000000800300203B
:109CF0003D4C00004D617220313320323032310052
:109D00000D0A4849256428446F6E676C6529202533
:109D1000642E25642E25642025730D0A00000000A2
:109D200032303130202D203230323020436F707984
:109D30007269676874206279204869504E55430DF6
:109D40000A000000F40200204D4F44453A00000094
:109D5000252D3136732564282573290D0A0000004E
:109D600049443A00252D313673307825580D0A00C4
:109D7000555549443A000000252D313673255825A4
:109D8000580D0A004F44523A00000000252D31368C
:109D9000732564487A0D0A003D53454E534F5200D7
:109DA000677972206672710073656E736F722073CB
:109DB00074730000252D3136733078253038580DF6
:109DC0000A000000E40200204143435F52473A008A
:109DD000252D3136732564470D0A0000E802002066
:109DE0004759525F52473A00252D31367325646436
:109DF00070730D0A000000003D4350550000000044
:109E00001F85EB5174696D6500000000252D31360A
:109E100073256420730D0A003D43414C000000008F
:109E20004143430D0A0000006E6F6865616465720E
:109E3000000000005243204143430D0A000000008F
:109E40004759520D0A0000005243204759520D0A4B
:109E5000000000004D41470D0A00000067797220A4
:109E6000636F6600252D313673252E34660D0A008A
:109E70003D55535200000000252D31367325640DE9
:109E80000A000000475749443A0000004241554447
:109E90003A00000043414E5F424155443A00000001
:109EA00043414E5F49443A00252D31367325580D04
:109EB0000A00000047425F5448523A00252D3136CF
:109EC0007325302E34660D0A000000004C4D465FAD
:109ED0005448523A00000000494D555F434F4F52DD
:109EE000443A0000555246520D0A00003D524600C9
:109EF0004D41585F4E4F44455F53495A453A000023
:109F00004652513A00000000524F4C453A000000C2
:109F10003D535953000000006F73207469636B0058
:109F20003D4853490000000076616C69643A0000C6
:109F30006669746572723A00252D31367325660D97
:109F40000A00000062696E5F7374617475733A0091
:109F5000252D313673256425250D0A00666C75782C
:109F60003A000000696E636C696E6174696F6E3AE5
:109F70000000000010B500F001F810BD70470000AF
:109F800010B5086800221146401CFEF773FBB0F5BF
:109F90007A7F84BF012010BD084A916CB0EB114F4D
:109FA00009D089B241EA004090644FF4E27102F1B5
:109FB000200008F029FB002010BD000080030020D5
:109FC000FEE700000E4918B409780E4A8DF800002B
:109FD000012352F821C0CCF8483552F82140C4F88A
:109FE00044D552F821C0CCF8083052F82110D1F8ED
:109FF0001C21002AFBD00022C1F81C2118BC70478C
:10A00000C401002044270100054A012303FA00F09F
:10A010000029116814BF084321EA0000106070474E
:10A02000301500400649086810F4807F14BF40F6E0
:10A0300038104FF41660096801F03F01084470477A
:10A0400008150040014800687047000004150040F2
:10A0500070B5194CD4F83001002568B1C4F83051FE
:10A06000FFF7F0FF014615488122406806F078FAB4
:10A0700013488168491C8160D4F83401002818BF56
:10A08000C4F83451D4F80C01002818BFC4F80C519E
:10A090000C4800680A2818BF70BD0021172006F080
:10A0A0005DFC00F041F9084800F020F9BDE870407F
:10A0B0000121084600F0FEB80010004064000020B6
:10A0C0004006002050150040380C00201448134969
:10A0D00001600821021F1160016821F0FF01016089
:10A0E000016841F0800101600E48022101600F49C2
:10A0F0000D480860091D4FF6FF7008600C490020EC
:10A10000C1F800020B48016841F0010101600A49F1
:10A11000042008600949012008607047FF0004011D
:10A12000181500403415004021100100381500407A
:10A1300000100040501600400C150040FC1F00406D
:10A1400001490860704700000815004010B44FF046
:10A15000E02202234FF0010CC2F800311B4A07280D
:10A1600024BF10BC7047DFE800F0120E041E232845
:10A170001A00082019B1C2F8040310BC7047C2F8D5
:10A18000080310BC704704200029F8D0F3E7002929
:10A1900014BFC2F80433C2F8083310BC70478020E3
:10A1A0000029ECD0E7E74FF480500029E7D0E2E740
:10A1B0004FF400500029E2D0DDE7002914BFC2F8B7
:10A1C00004C3C2F808C310BC704700000010004070
:10A1D00004490A6822F0FF020A600A68C0B210430C
:10A1E00008607047181500400749002818BF01286B
:10A1F00007D0022808BF032003D003280CBF042087
:10A200007047086070470000101500400149086061
:10A210007047000020150040254B1A1D082828BF54
:10A220007047DFE800F0040B141C242B343C186842
:10A2300020F0FF0018601868084306E0186820F452
:10A240007F401860186840EA01201860704718685D
:10A2500020F47F001860186840EA0140F5E71868AC
:10A2600020F07F401860186840EA0160EDE7106850
:10A2700020F0FF0010601068084306E0106820F42A
:10A280007F401060106840EA01201060704710683D
:10A2900020F47F001060106840EA0140F5E7106884
:10A2A00020F07F401060106840EA0160EDE7000098
:10A2B000241500400C4A68B1012818BF70470029D6
:10A2C000D2F8000214BF40F0200020F02000C2F8B5
:10A2D00000027047D2F80002002914BF40F00100CC
:10A2E00020F00100F3E7000000100040034908607F
:10A2F0000349012088604861704700000415004050
:10A3000000100040054A1060054801600548002122
:10A31000C0F80C1101218160704700002C1500402D
:10A3200004150040001000400B48016802291FBFBF
:10A33000016801290068032808BF70474FF0000139
:10A340000648C0F800114FF001014160D0F800113B
:10A350000029FBD07047000050150040001000405D
:10A36000114801680A291FBF0168092901680B29E2
:10A3700008BF704702684FF00103022A0B491FBF54
:10A380000268012A0268032A08BFCB6002D1026872
:10A39000022AFCD10020C1F800010B60D1F80001B5
:10A3A0000028FBD07047000050150040001000400E
:10A3B00000B589B008686B4608AA08A1FEF728F81E
:10A3C000022804D1694607A0089A05F0ABFD69464A
:10A3D000089804F051FD09B0002000BD3D25642C13
:10A3E0002573000073656E64202225732220746F2C
:10A3F000206465766963655B25645D0D0A00000075
:10A4000070B5FFF70FFE134E024613A096F8C0106A
:10A4100005F088FD174D18A0EA68696805F082FD0F
:10A420001AA005F07FFDB6F8C0000024C0F3072095
:10A4300000280DD905EB8400214602691AA005F019
:10A4400071FDB6F8C000641CC0F30720A042F1D82B
:10A45000002070BD80030020677769643A2564207E
:10A46000726164696F20667265713A25644D687A1D
:10A470000D0A00004006002054583A2564487A200E
:10A4800052583A2564487A0D0A00000072616469E6
:10A490006F20726F757465722072656376206465D3
:10A4A000763A0D0A000000005B253032645D2025FD
:10A4B0006420487A0D0A000010B504A007F0ECFFF4
:10A4C00072B605F0F1F9002010BD00004F4B0D0AE7
:10A4D00000000000014A516010607047B001002088
:10A4E000880000F1A040D0F8001721F00C01C0F85E
:10A4F0000017002A04BFD0F8001741F0040106D06D
:10A50000012A06BFD0F8001741F00C017047C0F8CF
:10A510000017704710B505F08FFC07F067FABDE82B
:10A52000104005F0A3BC00000249014808607047D4
:10A530000090D0035803002070B4B448B44A0125F9
:10A540000078111D2C074FF0000C062804BF13786B
:10A5500013F00F0F06D0062804BF137813F00F0F67
:10A5600013D10DE00B7803F0F003302B1CBF402B10
:10A57000502BF0D1B4F82433A64EC3F30423336038
:10A580000B7803F0F003302B0CD0062804BF1378AF
:10A5900013F00F0F0AD0062804BF137813F00F0F23
:10A5A00017D111E09D4E9C4B736707E00B7803F0C9
:10A5B000F003302B1CBF402B502BECD1D4F844328D
:10A5C000974EC3F3423333600B7803F0F003302B24
:10A5D0000CD0062804BF137813F00F0F0CD00628F8
:10A5E00004BF137813F00F0F1CD116E08D4B1E68BB
:10A5F00026F080761E6007E00B7803F0F003302B26
:10A600001CBF402B502BEAD14FF08043C3F80CC144
:10A61000C3F810C1844BC3F800C00B7803F0F003FB
:10A62000302B06D0062804BF137813F00F0F0AD181
:10A6300004E07E4E4FF0030333600BE00B7803F031
:10A64000F003302B06D0062804BF137813F00F0F49
:10A6500013D10DE0764E4FF005033360754B1D604E
:10A66000754BC3F800C006F104064FF03F0333609A
:10A670000B7803F0F003502B0CD0062804BF13789E
:10A6800013F00F0F58D0062804BF107810F00F0FEA
:10A6900070D15FE0694B1B68694E3360694B1B6882
:10A6A00006F104063360684B1B6806F1040633604C
:10A6B000664B1B6806F104063360654B1B6806F1A8
:10A6C00004063360634B1B6806F104063360624B7B
:10A6D0001B68624E3360624B1B6806F104063360F0
:10A6E000604B1B6806F1040633605F4B1B6806F184
:10A6F000040633605D4B1B6806F1040633605C4B57
:10A700001B6806F1040633605A4B1B685A4E3360CF
:10A710005A4B1B6806F104063360594B1B6806F15F
:10A7200004063360574B1B6806F104063360564B32
:10A730001B6806F1040633600B7803F0F003302B3E
:10A740001CBF402B502B9ED1D4F858024F4A00F02A
:10A750004F001060087800F0F00030281CBF40283F
:10A76000502807D14A48016811F0010F1CBF6FF053
:10A7700001010160D4F83001062804BFD4F8340187
:10A78000062804D14348016841F4806101604248D1
:10A79000016841F470010160BFF34F8FBFF36F8F09
:10A7A0004FF01022D2F8000210F0004F04BFD2F890
:10A7B000040210F0004F23D0384B1D603848016868
:10A7C0000029FCD04FF01504C2F8004201680029AE
:10A7D000FCD0C2F8044201680029FCD0C3F800C0D4
:10A7E00001680029FCD0BFF34F8F2E4801682E4A24
:10A7F00001F4E06141EA02010160BFF34F8FFEE71F
:10A800002B492A48086070BC70470000E00F00F038
:10A81000E40F00F0403501400DF0ADBA00C0074034
:10A820003C050040FCED00E038050040A00500407C
:10A83000105600408856004018560040040400108E
:10A8400020C50040080400100C0400101004001083
:10A8500014040010180400101C04001040C500402F
:10A860002004001024040010280400102C04001000
:10A87000300400103404001060C50040380400109B
:10A880003C0400104004001044040010E40E00409A
:10A89000000400403C17004088ED00E004E5014062
:10A8A00000E401400CED00E00400FA050090D00344
:10A8B0005803002010B519480024C0F8404107F0A3
:10A8C000ABFB1748174A418800784143B2FBF1F1CE
:10A8D000154A831CA2FB01214A091449144891F826
:10A8E000C0100370862343708170C27055210171BE
:10A8F00000210120FFF7DEFC0121172006F02EF8D1
:10A90000FFF72EFD0A490120FFF7FCFC094801680A
:10A91000491C01600848847010BD000000800040A0
:10A920006400002040420F001F85EB51800300208F
:10A93000100700204006002070070020194B30B49B
:10A9400053F820C00324CCF81045DFF85CC0022582
:10A950005200CCF8005053F820C04FF4A86505EB26
:10A9600081054CF8052053F820204FF0010CC2F867
:10A970000CC053F820500022C5F8042553F82020BD
:10A98000C2F8084553F82020D2F800420CFA01F131
:10A990002143C2F8001253F82000C0F800C030BCB8
:10A9A0007047000030270100C00100204FF0010C6B
:10A9B00010310CFA01F30B49002A51F8201014BF92
:10A9C000C1F80433C1F808330749085600F01F01E5
:10A9D0000CFA01F14009800000F1E020C0F80011FC
:10A9E00070470000302701002C27010070B51E4D74
:10A9F000D5F810011D4C00281CBFD5F8040310F039
:10AA0000100F1ED0208B10F4007F16D0184E606DF2
:10AA1000317801444FF0000000F02CF83078E16DFF
:10AA2000401CC0B2B0FBF1F201FB1200307040F2EA
:10AA300003110E4805F074F803E001210B4805F0FE
:10AA40006FF8D5F8200100281ABFD5F8040310F4D8
:10AA5000807F70BD4FF00000C5F82001A06DBDE8FB
:10AA6000704006F05DB8000000200040D0110020CA
:10AA700098010020084A52F82000D0F81021002A3E
:10AA800004BF012070470022C0F81021034840781D
:10AA9000087010467047000044270100C4010020E0
:10AAA00070B51E4B082253F820C0CCF800250022B8
:10AAB00084461C1D54F832508D4206D104EBC20569
:10AAC00053F82C606D68C6F82455521C0A2AF1D33D
:10AAD00053F82010D1F8002242F02002C1F80022E1
:10AAE00053F820200121C2F8381553F820C00C4A31
:10AAF000CCF8342553F82020116053F820209160C1
:10AB0000084C217839B10849087008490848FFF70E
:10AB1000E1FC00202070002070BD000044270100EF
:10AB2000C5010020B8010020C4010020B99900002F
:10AB3000C59F000003B40C49012251F82030C3F82E
:10AB4000482551F820C001ABCCF8443551F82030ED
:10AB50009A6051F82000D0F81C110029FBD0002188
:10AB6000C0F81C1102B0704744270100154B10B407
:10AB70001B56012403F01F0C04FA0CFC5B099B001C
:10AB800003F1E023C3F800C10F4B39B1012902D012
:10AB9000022907D012E010213AB90BE04FF480717E
:10ABA0001AB907E04FF4003122B153F82000C0F881
:10ABB000041303E053F82000C0F8081310BC002071
:10ABC0007047000040270100442701000A4B10B4E1
:10ABD00053F820404FF0000CC4F820C153F820C0B7
:10ABE000CCF8482553F82020C2F8441553F820002B
:10ABF0000121816010BC7047442701000FB4054B50
:10AC000010B503A9044A029800F07EFE10BC5DF85E
:10AC100014FB000035CA0000BC0100200FB4084B33
:10AC200010B504A902AA039800F06EFE044602A91A
:10AC3000002001F050FA204610BC5DF814FB000023
:10AC4000D7C000007CB5044600201D4616460029EA
:10AC50000BD0491ECDE90041044B6A4629463046D7
:10AC600000F052FE009A002111707CBDC1C00000AE
:10AC700003B401984100009850EAC12018BF042095
:10AC80004A0D18BF40F0010040F2FF72B2EB515F75
:10AC900008BF40F00200012808BF052002B070473D
:10ACA000004870475C03002070B5C1482DED020BD1
:10ACB0002DED0E8B82B0119D25F000449FEDBEDB83
:10ACC0009FEDBFEB84423EDBA4F140511098A1F10F
:10ACD0007F6108430FD0BC48844202DC28D1109821
:10ACE00030B39DED100B02B0BDEC0E8B02B0BDE891
:10ACF000704000F0A6BC9DED100B53EC1D2B51ECE9
:10AD0000100BFDF7A4FD9DED100B41EC180B53EC5F
:10AD10001E2B51EC100BFDF79AFD53EC182BFDF791
:10AD2000EFFC41EC100B02B0BDEC0E8B02B070BD1D
:10AD3000012000F0F1FC02B0BDEC0E8B02B0BDE8CA
:10AD4000704000F095BCA1489FEDA18B844256DA7B
:10AD50009DED100BB4F1795F0ADA51EC100BFFF79F
:10AD600087FF042808BF00F093FC9DED100BDAE785
:10AD700053EC102B51EC100BFDF769FD41EC190B56
:10AD800095480621B0EE490AF0EE690A784400F0D1
:10AD9000DCFB53EC192B51EC100BFDF758FD41EC8B
:10ADA0001A0B8E48B0EE490AF0EE690A0421784485
:10ADB00000F0CBFB53EC192B51EC100BFDF747FDCA
:10ADC00053EC182BFDF79CFC41EC100B51EC1A0BCB
:10ADD00053EC102BFDF7ADFDCDE900019DED000B0F
:10ADE00053EC102B9DED100B51EC100BFDF72FFDCC
:10ADF0009DED101B53EC112BFDF782FCD2E09DED75
:10AE0000100B51EC100B01F009FE53EC182BFDF761
:10AE10001BFD9FED730BCDE9000153EC102B9DED55
:10AE2000000B51EC100BFDF712FD41EC190B6E48B5
:10AE30000621B0EE490AF0EE690A784400F085FB7D
:10AE400053EC192B51EC100BFDF701FD41EC1B0BE2
:10AE50006648B0EE490AF0EE690A0421784400F031
:10AE600074FB53EC192B51EC100BFDF7F0FC53EC79
:10AE7000182BFDF745FC41EC1C0B51EC190B07F0AE
:10AE800011F941EC180B5A489FED5BABA04222DC54
:10AE900053EC1C2B51EC1B0BFDF74BFDCDE90001D6
:10AEA0009DED000B51EC180B53EC102BFDF7CFFC74
:10AEB00053EC182BFDF724FC53EC1A2BFDF7C7FCC1
:10AEC00053EC1D2BFDF7BDFC53EC1E2BFDF7BCFC1A
:10AED00041EC100B5FE08DED008B002000909DEDAC
:10AEE000000B51EC180B53EC102BFDF709FC9DEDFA
:10AEF000000B41EC1E0B53EC102B51EC100BFDF72B
:10AF0000A6FC53EC192BFDF79FFC53EC1E2BFDF711
:10AF100010FD41EC190B53EC1C2B51EC1B0BFDF7F6
:10AF200008FD41EC1B0B53EC1A2B51EC190BFDF7F0
:10AF30008EFC53EC1D2BFDF787FC41EC190B53ECF9
:10AF40001A2B51EC180BFDF782FC53EC1B2BFDF771
:10AF50007EFC53EC192BFDF774FC9DED000B41ECCE
:10AF6000180B53EC1A2B51EC100BFDF770FC9FEDF6
:10AF7000249B53EC192BFDF767FC41EC100B51ECB3
:10AF8000180B53EC102BFDF75CFC53EC192BFDF761
:10AF90005BFC41EC100B002D3FF7C5AE51EC100BE4
:10AFA00081F0004141EC100BBDE600000000000004
:10AFB0000000F03F00000000075C143326A6913C1F
:10AFC000182D4454FB21F93F0000F07F0000E03FC2
:10AFD000000000000000F03FE87D0000F67D00006A
:10AFE000000000000000E03F3A7D0000487D0000C6
:10AFF0003333EF3F0000000000000000000000407D
:10B00000182D4454FB21E93F70B59B482DED020BF0
:10B010002DED068B079D25F00044A04218DC9748D3
:10B02000844202DC0AD1069840B19DED060BBDECCE
:10B03000068B02B0BDE8704000F003BB002DCCBF12
:10B040009FED8F0B9FED900BBDEC068B02B070BD9A
:10B050008F48A04215DD8F48A042D8BF4FF0FF3483
:10B0600058DD9DED060B51EC100BFFF701FE042897
:10B0700008BF00F00DFB9DED060BBDEC068B02B08A
:10B0800070BD9DED060B51EC100B01F0C7FCCDE936
:10B09000060181489FED828BA0423CDD8248A042A0
:10B0A0001FDD00249FED82AB9DED060B53EC1A2BA8
:10B0B00051EC100BFDF724FB9DED060B41EC190B39
:10B0C00053EC1A2B51EC100BFDF7C1FB53EC182B72
:10B0D000FDF7B7FB53EC192BFDF72BFCCDE906016F
:10B0E00049E09DED060B012453EC182B51EC100B9D
:10B0F000FDF706FB9DED060B41EC190B53EC182BED
:10B1000051EC100BFDF79DFB53EC192BFDF711FCD7
:10B11000CDE906012FE06848A0421FDD02249FED23
:10B12000689B9DED060B53EC192B51EC100BFDF7B2
:10B130008EFB53EC182BFDF7E3FA9DED060B41EC6B
:10B14000180B53EC192B51EC100BFDF77AFB53EC59
:10B15000182BFDF7EEFBCDE906010CE09DED060B8B
:10B16000032453EC102B9FED580B51EC100BFDF703
:10B17000E0FBCDE906019DED060B53EC102B51ECE5
:10B18000100BFDF764FB41EC180B53EC182BFDF78B
:10B190005EFB41EC190B4E480621B0EE490AF0EE79
:10B1A000690A784400F0D1F953EC182B51EC100BDC
:10B1B000FDF74DFB41EC180B4648B0EE490AF0EEA6
:10B1C000690A0521784400F0C0F953EC192B51ECC1
:10B1D000100BFDF73CFB41EC100B51EC180B53EC42
:10B1E000102B002C0EDAFDF78BFA9DED061B53ECAD
:10B1F000112BFDF72CFB9DED061B53EC112BFDF7DE
:10B2000023FB35E0FDF77CFA9DED061B53EC112B7B
:10B21000FDF71DFB41EC100B2F48784400EBC400F8
:10B2200090ED001B51EC100B53EC112BFDF709FBBB
:10B230009DED061B53EC112BFDF703FB41EC100BAE
:10B240002648784400EBC40090ED001B51EC100B35
:10B2500053EC112BFDF7F8FA41EC100B002DA2BFB7
:10B26000BDEC068B02B070BD51EC100B81F00041BB
:10B2700041EC100B01E70000000010440000F07FDB
:10B28000182D4454FB21F93F182D4454FB21F9BFDC
:10B290000000DC3F0000203E0000F33F0000000003
:10B2A000000000000000F03F0000E63F000000004A
:10B2B000000000000000004000800340000000008B
:10B2C000000000000000F83F000000000000F0BF98
:10B2D0008A7A0000407A0000CA7900008279000072
:10B2E00070B56B4E2DED040B2DED028B82B0DDF8A9
:10B2F0001CC0DDE905235C422CF000411C4341EAFF
:10B30000D474049D22F00040B44205D86C422C4312
:10B3100040EAD474B4420BD99DED061B9DED040B9D
:10B3200002B0BDEC028B04B0BDE8704000F093B9F0
:10B33000ACF14054A4F17F641C430BD0022404EA16
:10B34000AC7444EAD27405439FED538B9FED542BAC
:10B3500007D015E09DED040B51EC100B00F0CAFE78
:10B3600042E0002C11BF012C9DED040B02B0BDEC9E
:10B37000028B04BF04B070BD022C38D0032C3BD02C
:10B380000B439FED491B9FED4A0B0AD0B14218D1E8
:10B39000B04209D121F0804120F080400791059012
:10B3A0000FE0002A15DA10E0434B7B44002C08BF65
:10B3B00093ED000B0DD0012C10D0022C17D0032CD4
:10B3C0001AD0B0421DD1002A03DAB0EE410AF0EEE5
:10B3D000610A02B0BDEC028B04B070BD93ED000BAE
:10B3E00051EC100B81F0004141EC100BF1E7B0EE95
:10B3F000480AF0EE680AECE7B0EE420AF0EE620AA4
:10B40000E7E7401A00153C28C8BF8DED000B19DC9A
:10B41000BCF1000FBEBF10F13C0F9FED290B8DED6D
:10B42000000B0FDB9DED060B53EC102B9DED040B79
:10B4300051EC100BFDF77DFA01F0F0FA00F05AFE26
:10B44000CDE90001002C08BF9DED000BC1D0012CFF
:10B4500010D0022C9FED1C0B53EC102B9DED000B1C
:10B4600051EC100B0DD0FDF7ECF953EC182BFDF758
:10B47000E8F9B9E7019880F0004001909DED000BDC
:10B48000A7E7FDF7DEF953EC182BFDF7DDF9ABE785
:10B490000000F07F00000000182D4454FB210940FB
:10B4A000182D4454FB2109C0182D4454FB21F9BF29
:10B4B000182D4454FB21F93FB27800000000000031
:10B4C0000000000000000000075C143326A6A13C29
:10B4D00000B52DED048BB0EE409AF0EE609A83B08B
:10B4E00051EC190BFDF7D3FC41EC180B18EE100AC8
:10B4F00018EE901A8DED008B002818BF012008432C
:10B5000020F00040C0F17F6000F1E040C00F14D097
:10B5100019EE101A19EE900A8DED009B002918BF44
:10B520000121084320F00040C0F17F6000F1E040BD
:10B53000C00F04BF012000F0EFF8B0EE480A03B0DE
:10B54000F0EE680ABDEC048B00BD70B504462DED2D
:10B55000028B4D1E00EBC500B0EE408AF0EE608A13
:10B5600090ED000B35F0060017D053EC182B51EC82
:10B57000100BFDF76CF941EC100B6D1E04EBC500D0
:10B5800090ED001B51EC100B53EC112BFDF7B8F8AC
:10B5900041EC100B35F00600E7D1022D36D0042D1A
:10B5A0001CD0062D1CBFBDEC028B70BD53EC182BBC
:10B5B00051EC100BFDF74BF994ED0A1B53EC112BDA
:10B5C000FDF79EF853EC182BFDF741F994ED081B9D
:10B5D00053EC112BFDF794F841EC100B53EC182BA6
:10B5E00051EC100BFDF733F994ED061B53EC112BC6
:10B5F000FDF786F853EC182BFDF729F994ED040BB1
:10B6000053EC102BFDF77CF841EC100B53EC182B8E
:10B6100051EC100BFDF71BF994ED021B53EC112BB1
:10B62000FDF76EF853EC182BFDF711F994ED001BA4
:10B6300053EC112BFDF764F8BDEC028B41EC100BC1
:10B6400070BD10B553EC102B51EC100BFDF758F8F2
:10B6500041EC100B10BD10B553EC112B51EC100B3D
:10B66000FDF74EF841EC100B10BD0000000000008B
:10B670009FED050B10B553EC102B51EC100BFDF7A3
:10B6800058F941EC100B10BD000000000000000054
:10B690009FED050B10B553EC102B51EC100BFDF783
:10B6A000D6F841EC100B10BD0000000000000010A7
:10B6B000002808BF704710F0FF0F0E4904D051FA60
:10B6C00080F00078401C704710F47F4F04D0C0F326
:10B6D0000720085C0930704710F47F0F04D0C0F3D6
:10B6E0000740085C1130704701EB1060007819309A
:10B6F000704700009827010002E008C8121F08C127
:10B70000002AFAD170477047002001E001C1121FE2
:10B71000002AFBD170470000014908607047000013
:10B720005C0300202DE9FF5F82B00021DDE90430D9
:10B73000020DDDF840B0034318D044F61050A2F2D9
:10B74000FF3242431514119801281FD0A5EB0B00BE
:10B75000401C5FEA000A4FF000064E4FDFF83891B8
:10B76000B046504615D5CAF1000413E011980124E3
:10B770004AA3012801D16FEA0B010298119AC0E98E
:10B780000031C0E9024206B0BDE8F09FCBF10000F5
:10B79000DFE704460021404A491842EB0450CDE956
:10B7A000001012E0E00707D032463B4640464946CB
:10B7B000FDF74DF88046894632463B46104619460D
:10B7C000FDF745F806460F466410002CEAD1DDE986
:10B7D0000401DDE90023BAF1000F06DAFDF737F8BE
:10B7E00042464B46FDF733F805E0FDF7A2F8424626
:10B7F0004B46FDF79EF804460E460022284BFDF707
:10B80000AFFB03D84FF0FF30014607E00022254B85
:10B8100020463146FCF774FFFDF78AFB102409E04F
:10B82000002C0ADB0A220023FDF763F9039B303268
:10B830001A55641E50EA0102F2D1641C039AC4F145
:10B8400011031444119A012A03D0012208430DD197
:10B850000AE0084304D000204FF0110B119072E76A
:10B86000A3EB0B056D1E0DE05B4504DD4FF0000200
:10B8700005F1010504E003DA4FF00002A5F101052E
:10B88000002AECD002981199C0E90231C0E90045C4
:10B8900079E70000000014400000F03F3000000095
:10B8A0000000F0430000E03F002A04BF4FF0FF30EB
:10B8B000704710B5036C114652881B680988984779
:10B8C000002010BD70B51D461400034601D0042DA4
:10B8D00001D0002070BD1A6C21889268904760806A
:10B8E000284670BD10B51C461100034601D0042C3B
:10B8F00001D0002010BD186C4A880988D0F804C017
:10B900001846E047204610BD2DE9FF4F95B09B46F5
:10B910008946064600250FE2252877D100242746D0
:10B92000F84A0121059400E0044316F8013F203B4A
:10B9300001FA03F01042F7D130782A2811D06FF0C5
:10B940002F033078A0F13002092A16D8059A44F066
:10B95000020402EB820203EB42021044761C0590C3
:10B96000EFE759F8042B0592002A03DA504244F419
:10B970000054059044F00204761C30782E2816D12D
:10B9800016F8010F44F004042A280DD06FF02F029E
:10B990003078A0F13003092B09D807EB870302EBBD
:10B9A0004303C718761CF3E759F8047B761C3078FC
:10B9B0006C280FD006DC4C2817D068280DD06A28D8
:10B9C00014D104E0742810D07A280FD10DE044F48B
:10B9D00000140AE044F4801401E044F44014727846
:10B9E000824202D104F58014761C761C30786628D9
:10B9F0000BD013DC582877D009DC002875D04528F7
:10BA0000F6D04628F4D047281AD19DE118E06328E3
:10BA100035D0642879D0652812D195E1702873D08B
:10BA200008DC6728F1D069286FD06E280DD06F2808
:10BA300006D1B5E073282CD0752875D0782874D03D
:10BA40005A46179990476D1C75E1C4F302500228BD
:10BA500009D003280DD0D9F8001004280DD00D60AE
:10BA600009F1040967E1D9F80010EA17C1E90052A9
:10BA7000F6E7D9F800100D80F2E70D70F0E719F83D
:10BA8000041B8DF8001000208DF80100EA4601200B
:10BA900003E059F804AB4FF0FF3061074FF00001AD
:10BAA00002D40DE008F101018846B9420FDA804561
:10BAB000F8DB1AF808100029F4D108E008F10101B8
:10BAC00088468142FADB1AF808100029F6D1059859
:10BAD0005B46A0EB080721463846179A00F094FA17
:10BAE000284400EB080507E04DE029E10DE01AF8D5
:10BAF000010B5A4617999047B8F10108F7D25B46F7
:10BB000021463846179A13E142E00A220092C4F314
:10BB100002524FF0000A022A08D059F804CB032A37
:10BB20004FEAEC710AD00DE029E02AE009F10701A3
:10BB300021F00702F2E802C1914609E00FFA8CFCFD
:10BB40004FEAEC71042A03D14FFA8CFC4FEAEC71F6
:10BB5000002907DA0A460021DCF1000C61EB020142
:10BB60002D2202E0220504D52B228DF8042001228B
:10BB700003E0E20701D02022F7E7904659E00A21CE
:10BB800002E010220DE010214FF0000A00910BE0BE
:10BB900010224FF0000A44F004040827009203E04A
:10BBA00008224FF0000A0092C4F30252022A05D084
:10BBB00059F804CB0021032A08D009E009F1070154
:10BBC00021F00702F2E802C1914605E01FFA8CFC61
:10BBD000042A01D10CF0FF0C4FF00008220728D5F1
:10BBE000702806D0009B83F0100353EA0A0305D0A7
:10BBF0000EE040228DF80420012208E05CEA0102F8
:10BC000006D030228DF804208DF8050002229046DF
:10BC1000009B83F0080353EA0A030AD15CEA01029D
:10BC200001D1620705D530228DF804204FF00108BC
:10BC30007F1E582804D034A003900EA802900DE077
:10BC400036A0F9E753466046009AFCF752FF844657
:10BC50000398825C0298401E029002705CEA010028
:10BC6000F0D1029806A9081A00F1200A600702D54F
:10BC700024F4803400E00127574502DDA7EB0A00D9
:10BC800000E0002000EB0A01009005984144401AB2
:10BC90000590E00306D45B462146179A059800F00C
:10BCA000B3F90544002706E001A85A46C05D17997C
:10BCB00090476D1C7F1C4745F6DBE0030CD55B46C7
:10BCC0002146179A059800F09FF9054404E03020BA
:10BCD0005A46179990476D1C0099481E00900029FC
:10BCE000F5DC08E0029802995A460078491C029156
:10BCF000179990476D1CBAF10001AAF1010AF1DC15
:10BD000065E100000928010030313233343536371F
:10BD10003839616263646566000000003031323397
:10BD20003435363738394142434445460000000037
:10BD300000F058F90544761C307800287FF4ECAD0B
:10BD400019B02846BDE8F08F620700D4062709F134
:10BD5000070222F0070CFCE80223E14603F000484A
:10BD60005FEA080C02D00FF2702C0DE05FEA045C71
:10BD700002D50FF2682C07E05FEAC47C02D00FF214
:10BD8000602C01E0AFF2700C4FF0FF3823F000435D
:10BD9000CDF850C065280CD006DC452809D04628CF
:10BDA0001DD047283DD13DE0662818D067287ED1B8
:10BDB00038E00021112F01DB112000E0781CCDE9D3
:10BDC000000106A90EA8FFF7ADFCDDE90F010E9AF0
:10BDD00003910021009207F1010A04914DE04FF018
:10BDE00000400097CDE9011006A90EA8FFF79AFCC4
:10BDF000DDE90F0203920E9B11990022DDF80CA0E1
:10BE00000093049211B9791C00EB010AB7EB0A0008
:10BE100004D4C0F1FF3007F1010A0490AAEB070037
:10BE2000019044E0012F00DA01270021112F01DDEC
:10BE3000112000E03846CDE9000106A90EA8FFF761
:10BE400071FCDDE90F010E9A03910021049100922B
:10BE5000BA4621070CD40399514500DA8A46BAF153
:10BE6000010F05DD009AAAF10101515C302908D0CB
:10BE7000B84202DA10F1040F06DA0121CDE901100F
:10BE800015E0AAF10101E9E7002805DC0499014465
:10BE90000491AAEB000102E0411C514500DD8A46F5
:10BEA0000499401A401C01904FF000400290200776
:10BEB00004D40198504501DBCDF8048000208DF8B2
:10BEC0004F0002980DF14F07B0F1004F25D02B2005
:10BED0000E9002984FF0020800280CDA40420290BF
:10BEE0002D200E9007E00A210298FCF7ECFD30317E
:10BEF000029007F8011DB8F10001A8F10108F2DC79
:10BF000002980028EFD1791E0E980870307800F062
:10BF1000200040F0450007F8020D12A8C01B00F1F8
:10BF200007081498007800B1012000EB0A0101987D
:10BF300001EBE07105984144401A401E0590E00372
:10BF400006D45B462146179A059800F05DF8054433
:10BF50001498007818B15A46179990476D1CE00361
:10BF600024D55B462146179A059800F04DF8054404
:10BF70001CE00498002807DBDDE90301884203DDAB
:10BF80000098405C179901E0179930205A46904775
:10BF9000049805F10105401C04900198401E019091
:10BFA00004D12E205A46179990476D1CBAF1000112
:10BFB000AAF1010ADDDC05E017F8010B5A461799D2
:10BFC00090476D1CB8F10001A8F10108F4DC5B4654
:10BFD0002146179A0598ABE62D0000002B000000C3
:10BFE000200000002DE9F041044600251E461746BA
:10BFF000880404D405E039462020B0476D1C641E37
:10C00000F9D52846BDE8F0812DE9F0410446002528
:10C010001E469046C80301D5302700E0202788043B
:10C0200004D505E041463846B0476D1C641EF9D57D
:10C030002846BDE8F081000070B582B09C461146EC
:10C040000446DDE90632DDE9086514304060006031
:10C05000C4E9081CC4E90A322321184604F084F913
:10C06000D4E90A010844021FD4E90801114B03F086
:10C0700079FEE06184F8366084F8356000206564FC
:10C08000A063A564206384F83400A067E067009093
:10C0900023460190084A194604F14C0005F064FD5E
:10C0A0000648816800291CBF20468847002002B04E
:10C0B00070BD00004515010061180100AC020020B0
:10C0C0004A68002A06D00A68531C0B601070486842
:10C0D000401E486070470A68531C0B601070704720
:10C0E00003490968002908BF704700F025B800001F
:10C0F0000000002010B541EC100BFEF785FF51EC5D
:10C10000100B10BD10B5044611682022044805F03C
:10C11000A2F804482146006804F072F8002010BD1F
:10C120006003002000000020024AC2E90001002054
:10C1300090607047E81900202DE9F843DFF8289156
:10C1400099F8001071B10025012914D0474C02293B
:10C150001CD0032918BFBDE8F8830D2818BF0A2892
:10C1600059D122E041280CBF0120BDE8F88389F8AD
:10C170000000BDE8F883542812BF89F8005002205F
:10C1800089F80000C9F80450BDE8F8830D281DBFE8
:10C190000A28D9F8041040290320E8D0605401F19E
:10C1A0000100C9F80400BDE8F883D9F80400DFF8FD
:10C1B000C0804FF000062554D8F8040000282AD982
:10C1C0003D212A48FCF7F6F8002808BFD9F804708A
:10C1D00004D03D212548FCF7EDF8071BD8F80000F6
:10C1E00050F83600FCF7F0F8B84206D3D8F8000053
:10C1F00050F83600FCF7E8F80746D8F800003A4651
:10C200001A4950F83600FCF7F4F840B1D8F80400A9
:10C21000761CB042D4D889F80050BDE8F883D8F82D
:10C22000000050F83600FCF7CFF820440090D8F812
:10C23000083043B10421D8F8000001EBC6016A467A
:10C2400040580121984725606560A560E56025613B
:10C250006561A561E56125626562A562E5622563A8
:10C260006563A563E563D6E728030020A8190020CD
:10C27000E81900200149886070470000E819002093
:10C2800010B50F4C00232371607188B220812260A9
:10C29000FCF7BEFB41EC100B53EC102B9FED0A0B8F
:10C2A00051EC100BFCF745FBFCF7BFFB05F086FBE0
:10C2B0000004000C608104BF0120608110BD0000FB
:10C2C000041B0020000000000000000080CCE240C1
:10C2D00070B5544884B0A0F58076A0F58A753178A1
:10C2E000017071784170718849BAADF80410B18855
:10C2F00049BAADF800107278032A18BF042A02D098
:10C30000102A0BD063E0022202EB410280F8FF20EA
:10C310004A008270707810282DD10AE0052280F83A
:10C32000FF20B2788270F278C2703279027172792D
:10C3300042710024B4EB510F49D206EB8400D0F8CF
:10C340000700010EC0F3074241EA0221C0F30722B1
:10C3500042EA002041EA004102912A68BDF8040047
:10C36000526804EB50009047601C84B2BDF8000096
:10C37000B4EB500FE1D37078042828D1BDF8000049
:10C380000024B4EB500F38BF264E20D22968BDF8E8
:10C390000400896804EB50008847010EC0F307428F
:10C3A00041EA0221C0F3072242EA002041EA0040AC
:10C3B000029006EB8400042202A9C01C03F0A6FF31
:10C3C000601C84B2BDF80000B4EB500FDED3154AF8
:10C3D0004FF6FF70134692F8FF100C46B1F1FF3F85
:10C3E00018BF114E0CD013F801CB491E8CEA000C7B
:10C3F0000CF0FF0C89B236F81CC08CEA1020F2D287
:10C40000511C931C605492F8FF10000AC85492F813
:10C41000FF00C01CC1B22868C2680248904704B03F
:10C4200070BD0000181C00207429010070B504467E
:10C4300005F0D6FA3A4D0026E968401A6989884223
:10C4400088BF2E7105F0CCFAE860287935490528B7
:10C4500063D2DFE800F0030D243F3C002E616879D1
:10C46000A04213BF002C0C70012070BD287170BD5C
:10C470004C704FF00200032C18BF042C0AD0102C73
:10C480001EBF2E7181F8FF6070BD062281F8FF206B
:10C49000287170BD2871052081F8FF0070BD224A07
:10C4A00028698454401C28614A78102A02BF052854
:10C4B000A21D81F8FF2091F8FF10A1F1010188422F
:10C4C00004BF04212971FD2898BF70BD25E0EC80D0
:10C4D0000320CBE7E888134A40EA042CA5F806C0FD
:10C4E00091F8FF104FF6FF70B1F1FF3F18BF0F4CEE
:10C4F0000AD012F8013B4340DBB2491E34F8133036
:10C5000089B283EA1020F4D2844505D128680168F5
:10C5100000291CBF034888472E712E7170BD000092
:10C52000041B0020181B00201A1B00207429010086
:10C53000F0B505462DED048B83B04FF09100170048
:10C540000E4628704FF0000402BF03B0BDEC048B10
:10C55000F0BDDFED868AB2EE048A9FED859A305DEC
:10C56000B12816D041DCA02873D00EDC622871D02F
:10C5700090287CD0912876D131194C222846FBF79F
:10C58000F5FE04F14C0084B2E9E0A12873D0B02894
:10C5900069D1301930F8011F09B200EE101AADF858
:10C5A00000104288F8EEC00AADF802208088ADF88D
:10C5B000040080EE880A10EE100AA861BDF902009E
:10C5C00000EE100AF8EEC00A80EE880A10EE100A9B
:10C5D000E861BDF9040000EE100AF8EEC00A80EE32
:10C5E000880A10EE100A28629DE0D02870D034DC52
:10C5F000C02818BFC12836D106EB040030F8011F4F
:10C6000009B200EE101AADF800104288F8EEC00A28
:10C61000ADF802208088ADF8040080EE880A10EEA4
:10C62000100A6862BDF9020000EE100AF8EEC00AB6
:10C6300080EE880A10EE100AA862BDF9040000EE30
:10C64000100AF8EEC00A80EE880A10EE100AE862BE
:10C6500069E010E079E00AE005E0D12865D0F02833
:10C6600008BF601D8FD003B0BDEC048BF0BD7078A7
:10C670006870A01C87E7301930F8011F09B200EE7E
:10C68000101AADF800104288F8EEC00AADF802208A
:10C690008088ADF8040080EEA80A10EE100AE86069
:10C6A000BDF9020000EE100AF8EEC00A80EEA80AFA
:10C6B00010EE100A2861BDF9040000EE100AF8EE31
:10C6C000C00A80EEA80A10EE100A68612BE0FFE7AE
:10C6D000301930F8011F09B200EE101AADF8001041
:10C6E0004288F8EEC00AADF802208088ADF8040058
:10C6F00080EE890A10EE100A6863BDF9020000EEB0
:10C70000100AF8EEC00A80EE890A10EE100A2863BB
:10C71000BDF9040000EE100AF8EEC00A80EE880AA7
:10C7200010EE100AA863E01D2DE73019D0F80110B3
:10C73000E963D0F805102964D0F809106964D0F8CD
:10C740000D00A86404F111001DE73019807800EB9A
:10C75000400101EB001004EB8000083084B2BC42C1
:10C76000FFF4FDAE03B0BDEC048BF0BD00007A44D5
:10C770000000C84210B501F0E3F8002010BD10B56C
:10C7800001F0CAFA002010BD0020704770B4038881
:10C790000025002A88BF41F2210612D911F805C0F0
:10C7A000002483EA0C234FEA430C13F4004F18BF14
:10C7B0008CEA060C6346641C082CF4D36D1C95426D
:10C7C000ECD3038070BC704710B501212DED028BB6
:10C7D00082B0B7EE008A009101F0B4FC04466946CD
:10C7E00000F036F962880021002AC8BF63680ADDBC
:10C7F00001FB021003EB8000491C90ED000A8A4205
:10C8000020EE088AF4DC9DED000A2046B8EEC00A4E
:10C8100028EE008A02F0DEFF02B0B0EE480ABDEC5E
:10C82000028B10BD002070472DE9F04383B01D46F8
:10C830001746884681460A9E03F012FB50B1CDE9A7
:10C8400000563B4642464946002005F0F1FD03B044
:10C85000BDE8F0830C480168002919BF846A002CE8
:10C8600003B0BDE8F083A4F11C00CDE9005654F8F4
:10C870000CCC3B4642464946E0472468002CF2D1A6
:10C8800003B0BDE8F0830000381A002070B50C46F4
:10C8900005461BA1FBF79FFD38B11CA12846FBF7FD
:10C8A0009AFD30B32846FEF7A9F920880026002813
:10C8B000D8BF70BD00256088002812DD61886068DF
:10C8C00006FB015150F82100FCF7CEF841EC100BAB
:10C8D00010A053EC102BFEF791F960886D1CA84254
:10C8E000ECDC0EA0FEF78AF92088761CB042E1DC71
:10C8F00070BD628821880AA0FEF780F9D5E70000A4
:10C900006E6F686561646572000000006D61746C33
:10C910006162000025382E34662000000D0A0000F8
:10C920006D61747269783A282564782564290D0A46
:10C930000000000070B50D461646044615A1FBF731
:10C940004AFD88B1022216A12046FBF752FD58B1DC
:10C9500014A12046FBF73FFD002807BF314613A076
:10C96000214616A0FEF74AF90024002E0DD955F8ED
:10C97000040BFCF779F841EC100B11A053EC102BD1
:10C98000FEF73CF9641CA642F1D8BDE870400AA04D
:10C99000FEF734B96E6F686561646572000000006F
:10C9A0002F2B00006D61746C616200007665632856
:10C9B0006C656E3A2564293A0D0A00002573000063
:10C9C00025382E3466200000428803889FED120A25
:10C9D00000215A43002A0ADD426802EB8102491C09
:10C9E00082ED000A428803885A438A42F4DC428876
:10C9F0000021002ACCBFB7EE000A70474388426886
:10CA000001FB031302EB8302491C82ED000A4288FA
:10CA10008A42F3DC704700000000000082B0CDE9DC
:10CA2000000121F0004001909DED000B02B051EC9F
:10CA3000100B704710B504460448016819B101682D
:10CA4000E2B210468847204610BD0000B001002029
:10CA5000F0B5044683B001200860608800250F46C9
:10CA6000002878DD6188636805FB015003EB8000D6
:10CA700090ED000AB5EEC00AF1EE10FA3FD1208821
:10CA80006A1C90423ADD02FB015C03EB8C0C9CEDCE
:10CA9000000AB5EEC00AF1EE10FA2CD09042C8BFE1
:10CAA000A84204DC3F494048FEF7A8F81FE00020F8
:10CAB00000291CD96388616802FB030C05FB030392
:10CAC00001EB8C0C01EB83019CED000AD1ED000A17
:10CAD000CCED000AB4F802C0636805FB0C0103EB5F
:10CAE0008101401C81ED000A61888142E2D83868EA
:10CAF00040423860B6E7521C9042C4DC49D02088DE
:10CB000005F10106B04244DD6188606806FB015210
:10CB100000EB8202D2ED000AF5EEC00AF1EE10FA47
:10CB200004D12088401EA8422FD132E005FB0152DB
:10CB300000EB8200228890ED001A2B46954280EE91
:10CB4000810AD8BF964207DDCDE90026174918486B
:10CB5000FEF754F819E021E00020002915DD89B224
:10CB600006FB010C626803FB010102EB8C0C02EB7B
:10CB70008101DCED000A91ED001A401C41EE400AF3
:10CB8000CCED000A61888142E9DC2088761CB04245
:10CB9000BADC60886D1CA8423FF764AF03B0002088
:10CBA000F0BD0000F928010048EF0000E028010076
:10CBB00028EE00000021162003F0BEFE0021162002
:10CBC00003F0CCFE144C154D01264FF4FA77B5F85E
:10CBD000C0200021C2F307220846002A08D904EB2E
:10CBE00080031B69002B18BF491C401C8242F6D8E9
:10CBF00006EB8100B7FBF0F80121162003F0AEFE32
:10CC00004FEA580004F051FD0021162003F0A6FE63
:10CC1000404604F04AFDDAE7400600208003002089
:10CC200070B55F4D286810F0020F1CBF5DA003F0C7
:10CC300079F9286810F0804F00F0A7805F4C2078C9
:10CC4000002836D05EA003F06DF921785FA003F0D4
:10CC500069F9207810F0010F1CBF62A003F062F99F
:10CC6000207810F0020F1CBF61A003F05BF9207860
:10CC700010F0040F1CBF61A003F054F9207810F0ED
:10CC8000080F1CBF61A003F04DF9207810F0100FC1
:10CC90001CBF61A003F046F9207810F0800F05D08A
:10CCA0005F4801685FA003F03DF902E061A003F076
:10CCB00039F9614C207800282FD060A003F032F9B8
:10CCC000217863A003F02EF9207810F0010F1CBF2B
:10CCD00065A003F027F9207810F0020F1CBF65A0B3
:10CCE00003F020F9207810F0080F1CBF64A003F0B7
:10CCF00019F9207810F0100F1CBF64A003F012F98E
:10CD0000207810F0800F05D06348016863A003F01D
:10CD100009F902E047A003F005F9644C20880028D7
:10CD200033D063A003F0FEF8218865A003F0FAF881
:10CD3000208810F0010F1CBF67A003F0F3F82088D3
:10CD400010F0020F1CBF67A003F0ECF8208810F071
:10CD5000040F1CBF66A003F0E5F8208810F0080F50
:10CD60001CBF65A003F0DEF8208810F4807F1CBF94
:10CD700063A003F0D7F8208810F4007F1CBF63A0E5
:10CD800003F0D0F82BA003F0CDF8286810F0004F86
:10CD900008BF70BD60A0BDE8704003F0C3B80000DC
:10CDA0002CED00E06661696C656420766563746FE4
:10CDB000722066657463680A0000000029ED00E0D7
:10CDC000627573206661756C743A0A005343425F62
:10CDD000434653525F424653523A307825303258D8
:10CDE00020000000494255534552522000000000E7
:10CDF000505245434953455252200000494D50522C
:10CE0000454349534552522000000000554E5354AB
:10CE10004B4552522000000053544B4552522000C3
:10CE200038ED00E05343422D3E424641523A253010
:10CE300038580A000A00000028ED00E06D656D20FA
:10CE40006D616E616765206661756C743A0A0000F9
:10CE50005343425F434653525F4D4653523A3078F4
:10CE600025303258200000004941434356494F4C79
:10CE7000200000004441434356494F4C200000002D
:10CE80004D554E53544B4552522000004D53544B78
:10CE9000455252200000000034ED00E05343422D83
:10CEA0003E4D4D41523A253038580A002AED00E0F7
:10CEB0007573616765206661756C743A0A000000DD
:10CEC0005343425F434653525F554653523A30787C
:10CED0002530325820000000554E444546494E53F7
:10CEE00054522000494E56535441544520000000EE
:10CEF000494E5650432000004E4F43502000000042
:10CF0000554E414C49474E45442000004449564245
:10CF1000595A45524F200000646562756720657656
:10CF2000656E740A0000000010B502A002F0FAFF5E
:10CF3000002010BD48656C6C6F2052542D546872EF
:10CF4000656164210A00000010B500F01DF80D4C69
:10CF500000204FF4E271A4F8B80284F8BC0204F196
:10CF6000200001F0C1FE48B100F022F800F09CF86A
:10CF70004FF4E27104F1200005F046FBBDE81040DB
:10CF800000F092B880030020074800219FED070AB7
:10CF9000C0F8EC1080ED390A80ED3A0A80ED380ACD
:10CFA00080ED370A08467047B418002000000000E2
:10CFB00070B5334C00252DED028B0121A5664FF491
:10CFC000E1302163C4E910102E48A0642E48A0650A
:10CFD000322084F85C0084F85D0084F85E0084F8F8
:10CFE0005F0008209FED290A606584ED210A84ED29
:10CFF000220A04F592702166FFF7E6FC04F5B27090
:10D00000FFF7E2FC04F5D270FFF7DEFC04F1E40068
:10D01000FFF7DAFC9FED1E8A032104F5A870B0EE3D
:10D02000480A05F0BBFAB0EE480A032104F5C870BF
:10D0300005F0B4FAB0EE480A032104F5E87005F0F3
:10D04000ADFA9FED140A164884ED2B0A9FED120AE3
:10D0500084ED2A0A9FED110A84ED2C0AC4F8A4502D
:10D06000A0641048C4F8C000D4F8800020F0FF008D
:10D0700040F03200C4F88000BDEC028B70BD0000AF
:10D0800080030020BE00640020A10700CDCCCC3E70
:10D0900000000000000048420000C6420000684254
:10D0A0000001640000106400F0B5A14D03202DEDD7
:10D0B000028B89B0A5F8E400A5F8E600A5F82401E4
:10D0C000A5F82601A5F86401A5F86601A5F8A40154
:10D0D000A5F8A60105F1EC00C5F8E8004030C5F858
:10D0E00028014030C5F8680140302C46C5F8A80139
:10D0F00000260F20C4E9AB608E486066DE2184F80C
:10D10000201084F82160432184F82210482184F8FB
:10D1100023107B2184F8241084F825606A2184F888
:10D12000261084F8276004F12800FCF73DFC00205D
:10D130003434FCF72BFC804FB0FBF7F0207000205C
:10D14000FCF724FCB0FBF7F0000A6070FCF726FC4B
:10D15000C0F30070A0707948E67090E8DF108DE8A9
:10D16000DF1001216A6C00206B4653F820C0624535
:10D1700008BF0021401C0828F7D300291CBF4FF42A
:10D18000E1306864D5F8800000F00F01032905D96B
:10D1900020F00F0040F00200C5F88000C0F303113A
:10D1A000042905D920F0F00040F03000C5F88000D7
:10D1B0006349D5F8840008446249884224BF9FED42
:10D1C000620A85ED210AD5F8C000C0F307211029B5
:10D1D00005D920F47F4040F48050C5F8C0005B4979
:10D1E000D5F8AC008842BCBF9FED590A85ED2A0AEC
:10D1F000032105F5A87005F0A1F910EE100A5549B4
:10D200009FED558A884206DDB0EE480A032105F5F8
:10D21000A87005F0C3F9032105F5C87005F08EF973
:10D2200010EE100A4D49884206DDB0EE480A03218F
:10D2300005F5C87005F0B2F905F5D270FFF7C4FA2C
:10D2400010EE100AB0F1804F04DC10EE100AB0F1BD
:10D25000404F03D905F5D270FFF7B6FBDFED400A6A
:10D260009FED400A032105F5E87005F04EF930B155
:10D27000B0EE480A032105F5E87005F08FF93A4948
:10D28000D5F88C008842C4BF9FED380A85ED230A8B
:10D290003749D5F88C00884284BF9FED360A85ED6A
:10D2A000230A05F59270FFF78FFAB7EE008A324C29
:10D2B00030EE480AB0EEC00A10EE100AA042C4BF19
:10D2C00005F59270FFF780FB05F5B270FFF77CFA69
:10D2D00030EE480AB0EEC00A10EE100AA042C4BFF9
:10D2E00005F5B270FFF770FB05F5D270FFF76CFA29
:10D2F00030EE480AB0EEC00A10EE100AA042C4BFD9
:10D3000005F5D270FFF760FB05F1E400FFF75CFA6A
:10D3100030EE480AB0EEC00A10EE100AA042C4BFB8
:10D3200005F1E400FFF750FB09B0BDEC028BF0BD46
:10D33000800300207856341240420F00BC280100C0
:10D340003333B3C29A99F902CDCCCC3E0AD7233CF1
:10D35000CDCCCC3D0000204000000000000020416A
:10D36000000048C3000048436F12833B6F12833BA9
:10D370006F1283BB6F1283BBCDCCCC3D70B582B036
:10D380004FF4E1310020FDF78BFB234900200860BA
:10D3900022490120086000F0B7FF21A002F09AFBAB
:10D3A0001FA001F0EEFF00281CBF032102F018F8B7
:10D3B0001D48FFF7C9FD1C48416C1CA002F0F2FC9F
:10D3C0001AA001F053FE05F01DF818A001F0D9FFD6
:10D3D000044640F2031102F003F81649204602F019
:10D3E000DCF80024144D142605EB04100022017B08
:10D3F000CDE9001683684168006804F053F804F032
:10D40000CFF9641C052CEFD304F082F902B0BDE81B
:10D41000704004F075B800000C2500401425004051
:10D420006F63666C617368008003002075617274BD
:10D430003000000059200100A826010070B5044604
:10D4400015468078E27800EB0220B0F5006F84BFCB
:10D45000012070BD20442A46801DFAF787FFA0787E
:10D4600050FA85F0A070E07800EB1520E070002005
:10D4700070BD5A220270417000218170C17001712B
:10D4800041710846704718B504460020ADF8000009
:10D49000022221466846FFF779F90222A11C68465C
:10D4A000FFF774F9A078E17800EB0122A11D68462E
:10D4B000FFF76CF9BDF800002071000A60710020D0
:10D4C00018BD8178C078062202EB0020084470471E
:10D4D00070B520A002F026FD2348244D046828687A
:10D4E00084420ED2022222A12068FAF782FF20B1E4
:10D4F000D4E900121FA002F015FD28680C34844204
:10D50000F0D32048046834B11FA0616802F00AFD1E
:10D510002468002CF8D11EA002F004FD2148224D01
:10D5200004682868844208D2D4E9001211A002F0ED
:10D53000F9FC286810348442F6D31C48046834B1DE
:10D5400011A0616802F0EEFC2468002CF8D10020E4
:10D5500070BD00002D2D46756E6374696F6E204C92
:10D560006973743A0A000000480300204C0300204D
:10D570005F5F0000252D313673202D2D2025730A85
:10D5800000000000380300205B6C5D2025730A005A
:10D590002D2D5661726961626C65204C6973743A15
:10D5A0000A00000050030020540300203403002030
:10D5B000F0B597B0082003F073F9051D50221A4901
:10D5C00002A8FAF7D3FE19A42946204600F050FF1E
:10D5D00006460146224617A002F0A4FC741E04D39E
:10D5E0001E4802F09FFC641EFAD21DA002F09AFCB5
:10D5F0002C68AC4218BF02AF12D0207AA17BA4F1F4
:10D600000C03132894BF57F8200015980822CDE981
:10D61000000131461BA002F085FC2468AC42ECD12D
:10D6200017B00020F0BD0000242901006465766970
:10D6300063650000252D2A2E732020202020202025
:10D640002020747970652020202020202020207246
:10D65000656620636F756E740A000000E4DD0000EB
:10D66000202D2D2D2D2D2D2D2D2D2D2D2D2D2D2DF7
:10D670002D2D2D2D2D202D2D2D2D2D2D2D2D2D2DE7
:10D680000A000000252D2A2E2A7320252D32307302
:10D6900020252D38640A00002DE9F04182B00320D6
:10D6A00003F0FEF8071D2CA43946204600F0E0FEEA
:10D6B0008046014622462AA002F034FCB8F101045B
:10D6C00004D3304802F02EFC641EFAD22EA002F0E1
:10D6D00029FC3E68BE423BD0B36806F10800A6F1C3
:10D6E0000C05834208D1E86900902B460822414688
:10D6F0002DA002F017FC28E005F1140200211046CD
:10D70000934204D00068491C03689342FAD1E86947
:10D71000CDE900012B460822414628A002F002FC78
:10D7200055F8144FAC420DD0A4F11401294802F071
:10D73000F9FB2068A8421CBF274802F0F3FB2468CD
:10D74000AC42F1D1254802F0EDFB3668BE42C3D1B0
:10D7500002B00020BDE8F0816576656E74000000BF
:10D76000252D2A2E73202020202020736574202050
:10D77000202073757370656E6420746872656164CF
:10D780000A000000E4DD000020202D2D2D2D2D2D80
:10D790002D2D2D2D202D2D2D2D2D2D2D2D2D2D2DC6
:10D7A0002D2D2D0A00000000252D2A2E2A73202061
:10D7B00030782530387820300A000000252D2A2EB8
:10D7C0002A73202030782530387820253033643A89
:10D7D0000000000010DD000014DD0000D0DC0000BF
:10D7E0002DE9F04184B0042003F05AF8071D32A45B
:10D7F0003946204600F03CFE80460146224630A0D5
:10D8000002F090FBB8F1010404D3364802F08AFB21
:10D81000641EFAD234A002F085FB3E68BE421FD0DF
:10D8200006F10800B36802468342A6F10C054FF0EA
:10D830000001104618D1934204D00068491C0368C7
:10D840009342FAD1288C6A8CCDE9002002912B46B4
:10D85000082241462BA002F065FB3668BE42DFD1AC
:10D8600004B00020BDE8F081934204D00068491C58
:10D8700003689342FAD1288C6A8CCDE9002002918A
:10D880002B460822414625A002F04CFB55F8144FC8
:10D89000AC420DD0A4F11401264802F043FB2068ED
:10D8A000A8421CBF244802F03DFB2468AC42F1D1E1
:10D8B000224802F037FBD0E76D61696C626F780037
:10D8C000252D2A2E7320656E7472792073697A650E
:10D8D0002073757370656E64207468726561640A84
:10D8E00000000000E4DD0000202D2D2D2D20202D36
:10D8F0002D2D2D202D2D2D2D2D2D2D2D2D2D2D2D65
:10D900002D2D0A00252D2A2E2A732025303464203F
:10D9100020253034642025640A000000252D2A2E9D
:10D920002A73202530346420202530346420256477
:10D930003A00000010DD000014DD0000D0DC000023
:10D9400010B5074C07A0616902F0ECFA0AA0A169C2
:10D9500002F0E8FAE169BDE810400CA002F0E2BA7A
:10D96000E0010020746F74616C206D656D6F7279D9
:10D970003A2025640A00000075736564206D656DAA
:10D980006F7279203A2025640A0000006D61786981
:10D990006D756D20616C6C6F6361746564206D657D
:10D9A0006D6F72793A2025640A0000002DE9F0417C
:10D9B00082B0052002F074FF071D30A439462046CE
:10D9C00000F056FD8046014622462FA002F0AAFA3A
:10D9D000B8F1010404D3334802F0A4FA641EFAD269
:10D9E00031A002F09FFA3E68BE421DD006F1080049
:10D9F000B36802468342A6F10C054FF000011046C1
:10DA000016D1934204D00068491C03689342FAD1AE
:10DA1000A88CCDE900012B460822414628A002F03F
:10DA200081FA3668BE42E1D102B00020BDE8F08143
:10DA3000934204D00068491C03689342FAD1A88C31
:10DA4000CDE900012B460822414622A002F06AFAE5
:10DA500055F8144FAC420DD0A4F11401224802F045
:10DA600061FA2068A8421CBF204802F05BFA2468D3
:10DA7000AC42F1D11E4802F055FAD2E76D736771DE
:10DA80007565756500000000252D2A2E7320656ED2
:10DA90007472792073757370656E64207468726532
:10DAA00061640A00E4DD0000202D2D2D2D20202DA5
:10DAB0002D2D2D2D2D2D2D2D2D2D2D2D2D0A000013
:10DAC000252D2A2E2A732025303464202025640A2F
:10DAD00000000000252D2A2E2A73202530346420D2
