:020000040000FA
:10800000881700206183000071B000000F8300001A
:108010006D8300006F83000071830000000000008A
:1080200000000000B6B6FE0F00820000738300005F
:1080300075830000000000005B82000019B800009A
:10804000DDB00000D9B1000025BD00007B83000039
:108050007B8300007B83000035A500007B8300004C
:108060004DBB00007B8300007B8300007B8300000E
:108070007B8300007B8300007B8300007B83000008
:108080007B8300007B8300007B8300007B830000F8
:108090007B8300007B8300007B8300007B830000E8
:1080A0007B8300007B83000099BB00007B83000082
:1080B0007B8300007B8300000000000000000000C4
:1080C0007B8300007B8300007B8300007B830000B8
:1080D0007B8300007B8300007B83000000000000A6
:1080E0000000000000000000000000000000000090
:1080F0000000000000000000000000000000000080
:10810000000000000000000000000000000000006F
:10811000000000000000000000000000000000005F
:10812000000000000000000000000000000000004F
:10813000000000000000000000000000000000003F
:10814000000000000000000000000000000000002F
:10815000000000000000000000000000000000001F
:10816000000000000000000000000000000000000F
:1081700000000000000000000000000000000000FF
:1081800000000000000000000000000000000000EF
:1081900000000000000000000000000000000000DF
:1081A00000000000000000000000000000000000CF
:1081B00000000000000000000000000000000000BF
:1081C00000000000000000000000000000000000AF
:1081D000000000000000000000000000000000009F
:1081E000000000000000000000000000000000008F
:1081F000000000000000000000000000000000007F
:10820000A5A5EDFE0000000000000000E41B010039
:108210003BEC5AC201000000DFF80CD001F040F83E
:1082200000480047B12E010088170020EFF31080AE
:1082300072B6704780F310887047434A1368012B69
:1082400004D04FF001031360404A1060404A1160AF
:1082500040484FF0805101607047EFF3108272B6D2
:108260003948016851B34FF0000101603748016897
:1082700091B1EFF309811EF0100F08BF21ED108BB3
:1082800021E9F00F4FF000041EF0100F08BF012489
:1082900041F8044D006801602D490968096808C962
:1082A000B1E8F00F002B18BFB1EC108B81F30988F7
:1082B0004EF0100E002B18BF2EF0100E82F3108817
:1082C0004EF0040E704722490860EFF3148222F04A
:1082D000040282F314881D494FF0000008601A4917
:1082E0004FF0010008601C484FF47F01D0F80020D7
:1082F00041EA0201016017484FF0805101601748C0
:108300000068006880F3088861B662B670471EF0A6
:10831000040F0CBFEFF30880EFF3098020E9F00FA2
:1083200040F804ED40F804ED1EF0040F0CBF80F39C
:10833000088880F3098800B50CF0EAFE5DF804EBCC
:108340004EF0040E70470000FC020020F4020020F2
:10835000F802002004ED00E020ED00E008ED00E070
:108360000648804706480047FEE7FEE7FEE7FEE7CF
:10837000FEE7FEE7FEE7FEE7FEE7FEE775B8000072
:108380001982000040EA01039B0703D009E008C9F5
:10839000121F08C0042AFAD203E011F8013B00F8CA
:1083A000013B521EF9D27047D2B201E000F8012B16
:1083B000491EFBD270470022F6E710B513460A4665
:1083C00004461946FFF7F0FF204610BDCAB2401E12
:1083D00010F8011F8A4202D00029F9D1002070470D
:1083E000421C10F8011B0029FBD1801A704710B500
:1083F000002200E0521C835C8C5CA34201D1002B64
:10840000F8D1D8B2E1B2401A10BD30B5054600200F
:10841000034600E05B1C934205D2EC5CC85C201A6A
:1084200001D1002CF6D130BD0FB400B58DB010A92C
:1084300009900B9000914FF0FF300A9000200C90B3
:1084400005480690054807906A4609A80F9900F06C
:1084500071FD0DB05DF814FB518F00006F8F0000AF
:108460002DE9FF5F1D464FF0FF3BD5E901469146E0
:108470005F464FF00008A9697F1C01988847296A68
:10848000824688470028F6D1BAF1FF3F0CD024F489
:10849000C064002E19DD600614D5BAF12B0F09D087
:1084A000BAF12D0F0ED103E0584604B0BDE8F09F9D
:1084B00044F48064A9697F1C01988847761E82462F
:1084C000002E02DDBAF1300F03D0B9F1000F26D033
:1084D00032E0A969761E44F400747F1C0198884735
:1084E0008246002E05DDBAF1780F06D0BAF1580F9A
:1084F00003D0B9F1000F10D01EE0B9F1000F02D087
:10850000B9F1100F18D1A969761E24F400747F1CEC
:10851000019888478246102002E0082000E00A20E7
:10852000814609E008FB0908A969761E44F4007435
:108530007F1C019888478246002E05DD494650463B
:1085400000F0E3FC0028EDDAE96901988847A0050E
:1085500002D46FF00100A8E7E00725D1600613D52B
:10856000600502D5C8F1000000E0404629680A1DF8
:108570002A600968220501D5087015E0220701D597
:10858000088011E008600FE02868011D296000687C
:10859000210502D580F8008006E0210702D5A0F869
:1085A000008001E0C0F8008038467EE72DE9FF5FDB
:1085B000D2E901A74FF00008916999461446DDF809
:1085C00038B0464601988847054659EA0B0005D061
:1085D00009E0A169761C019888470546216A28466A
:1085E00088470028F5D1681C03D05FEACA7005D01F
:1085F00015E04FF0FF3004B0BDE8F09F2068011D8A
:108600002160D0F800800AE05FEACA7001D108F862
:10861000015BA169761C7F1E019888470546002FE3
:108620001ADD681C18D0B9F1000F0DD0E81705EB62
:10863000D060421120F01F0059F822102A1A0120A0
:1086400090400142E0D107E0BBF1000FDCD1216A8C
:10865000284688470028D7D0E16901988847BBF1B0
:10866000000F07D1002E05DD5FEACA7002D100219C
:1086700088F80010A068B84203DDBBF1000F03D0FA
:1086800017B16FF00100B6E73046B4E72DE9FF4FB0
:10869000087883B09946FF2805D0491C2D2804D0BE
:1086A0000024002008E000200BE00124F9E700EBA3
:1086B000800003EB4000491C0B78FF2BF7D104B17D
:1086C000404200230293147819461D462D2C01D0F8
:1086D0002B2C04D1521C2D2C13D000240294AA461A
:1086E0001478FF2C0FD00A25A3FB057801FB058128
:1086F0004FF0000C03FB0C11521CE3194AEB010173
:10870000EEE70124EAE7814453EA010002D019F5BB
:10871000C87F06DA03980021C0E9001107B0BDE860
:10872000F08F0025AE4E2F46DFF8B882184600F0D5
:108730007AFDCDE90001B9F1000002DAC9F10004C7
:1087400000E004460023A74A1AEB030B42EB045A4D
:1087500012E0E00707D02A4633463846414600F08B
:1087600025FA074688462A4633461046194600F041
:108770001DFA05460E466410002CEAD1DDE9000121
:10878000B9F1000F5A46534606DA00F081FA3A462C
:10879000434600F07DFA05E000F008FA3A46434609
:1087A00000F004FA029A0AB181F00041039AC2E98A
:1087B0000001B3E72DE9FF4F1F468DB0D7E9014611
:1087C0004FF0FF382E2045464FF000090B90B96955
:1087D0006D1C0E988847396A824688470028F6D172
:1087E000BAF1FF3F0AD024F4D064002E11DDBAF1B3
:1087F0002B0F08D0BAF12D0F0BD102E0404611B07B
:108800008DE744F48064B9696D1C0E9888478246F0
:10881000761E6946600501D52D2000E02B208DF8DD
:10882000000001F1010B0DF1200809E0B9696D1C90
:108830000E98884782460F9844F40074761E0560AF
:10884000002E02DDBAF1300FF0D00B998A453ED1EF
:1088500044F0800406E00F99681CA9F1010944F472
:1088600000740860B9696D1C761E0E9888478246B0
:108870003028F0D02BE00B998A4505D1200603D48F
:1088800044F08004761E18E0504605F06FFB08B3F4
:108890000DF11301761E44F400748B4508D2AAF141
:1088A00030000BF8010B200607D5A9F1010003E009
:1088B000200602D409F101008146A00502D50F99D6
:1088C000681C0860B9696D1C0E9888478246002EA6
:1088D000D1DC53E0002E51DDBAF1650F02D0BAF1C0
:1088E000450F4BD1A00549D5B9696D1C24F44074DE
:1088F000761E0E9888478246002E0CDD2B2804D069
:10890000BAF12D0F07D144F48074B9696D1C0E982B
:1089100088478246761EE00501D52D2100E02B21F7
:1089200008F8011BCDF82C8021E00DF12901761EFD
:1089300044F4007488450CD2AAF1300010F0FF0016
:1089400088F8000002D10B99884509D908F101087F
:1089500006E0E00501D5244801E042F20F708146AF
:10896000B9696D1C0E98884782460F980560002EE5
:1089700004DD504605F0FAFA0028D6D1F9690E98C0
:108980008847FF208BF8000088F800000020069040
:1089900007904B466A4608A906A8FFF777FEA00590
:1089A00002D46FF001002AE714F0240F0AD0E00788
:1089B00014D1DDE906123868031D3B600068C0E988
:1089C00000120BE0DDE9060100F00EFA0146E007B7
:1089D00004D13868021D3A600068016028460EE73D
:1089E000000014400000F03FF1D8FFFF2DE9F05FD8
:1089F00093460F4680460446002603F093FBD0F8CA
:108A00000090824614F8015B2DB100F071FA006805
:108A1000405DC007F6D12B2D02D02D2D1AD0641E3B
:108A20000021CAF800105A463946204600F0B0FA34
:108A3000014627B13868A04201D1C7F80080DAF8B2
:108A40000000022809D0CAF80090700505D54842F8
:108A5000BDE8F09F46F48066E2E70846F8E72DE9B6
:108A6000FE4F804681EA0300C00F0C46009021F0C3
:108A7000004123F00045B8EB0200A94105D2404671
:108A8000214690461C460B46024623F00040104308
:108A900047D0270DC7F30A00C3F30A510290401ACA
:108AA000019040286BDAC3F3130040F4801B009858
:108AB000924620B10023D2EB030A63EB0B0B019823
:108AC0005946C0F14002504600F0F1F906460D4605
:108AD00050465946019A00F0F9F910EB080061413F
:108AE000002487EA115284EAE7731A4340D0009ABF
:108AF00062B3019A012A4FEA075215DC001B61EBB1
:108B000002014FF0004202EA0752CDE90042001C88
:108B100041F5801132462B4600F0CFFA03B0BDE894
:108B2000F08F40462146F9E7001B61EB0201001C73
:108B300041F5801300185B412018A2F5001747EBA0
:108B4000030140EAD570B6196D4111E06D084FEA96
:108B5000360645EAC0754FEA0752001B61EB020179
:108B6000001C41F5801149084FEA300000195141BD
:108B700032462B4603B0BDE8F04F00F08FBA0098A4
:108B8000012240000023D0EB020263EBE073009867
:108B900021464FEAE074B8EB000061EB0401E9E71D
:108BA00083F000435BE781F0004158E72DE9FE4F79
:108BB00081EA030404F0004421F0004100944FF0E6
:108BC000000B23F0004350EA01045ED052EA030494
:108BD0005BD0C3F30A54C1F30A552C44A4F2F33416
:108BE0000194A0FB0254C1F3130141F48011C3F3BB
:108BF000130343F4801301FB024400FB034E840A79
:108C0000970A44EA815447EA8357A4FB0768029510
:108C10008D0A05FB07854FEA932C04FB0C542705AE
:108C2000029D4FEA065847EA1637B5EB08056EEB8A
:108C3000070C870E920E47EA811742EA8312A7FBC0
:108C40000201B6EB0B0164EB00042B0D43EA0C337D
:108C50005E1844EB1C50DA465146E7FB0201C5F3AF
:108C600013044FEA0B3343EA14534FEA0432019CD6
:108C700043EA0603A4F10C040294009CCDE900B47D
:108C800000F01BFA03B0BDE8F08F00200146F9E7C1
:108C90002DE9F04D81EA030404F0004B21F000457A
:108CA00014464FF0000A23F0004150EA050220D09C
:108CB00054EA01021DD0C5F30A570246C5F3130357
:108CC000C1F31300C1F30A5640F4801543F4801336
:108CD000A7EB0608101BD64608F2FD3873EB05001B
:108CE00002D308F1010801E092185B41B8F1000FCE
:108CF00003DA00200146BDE8F08D00204FF480111A
:108D0000064684460EE0171B73EB050705D3121BBE
:108D100063EB050306434CEA010C49084FEA3000B7
:108D200092185B4150EA0107EDD152EA030012D0DC
:108D300082EA040083EA0501084305D0101BAB4119
:108D400006D20122002306E000224FF0004302E099
:108D50006FF0010253101AEB06004CEB085110EBB8
:108D60000A0041EB0B01BDE8F04D00F097B90EB5DC
:108D7000C10F80EAE0700844CA07002140F2334383
:108D80008DE80E000A460B4600F097F903B000BDCF
:108D900000F0004230F000400AD0C10D01F56071D2
:108DA000C0F3160042EA0151C20840071143704760
:108DB000002001467047000030B5041E71F1000428
:108DC00004DB4FF00044404264EB0101141E73F1D8
:108DD000000405DB1C464FF00043524263EB0403E2
:108DE0008B4208BF824230BD01F0004330B421F015
:108DF000004150EA010206D00A0DA2F56072C1F3EB
:108E00001301002A02DC30BC00207047440F44EA02
:108E1000C104C100E01830BC00EBC25000F007B93B
:108E200030B50B46014600202022012409E021FA3A
:108E300002F59D4205D303FA02F5491B04FA02F537
:108E40002844151EA2F10102F1DC30BD2DE9F05FCE
:108E50000546002092469B468846064681464024A9
:108E60001BE0284641464746224600F02BFA53466F
:108E70005A46C01A914110D311461846224600F0B6
:108E800016F82D1A67EB01084F46224601200021F3
:108E900000F00DF817EB00094E41201EA4F101046B
:108EA000DFDC484631462A464346BDE8F09F202A8B
:108EB00004DB203A00FA02F1002070479140C2F131
:108EC000200320FA03F3194390407047202A06DB61
:108ED000CB17203A41FA02F043EAE07306E041FA88
:108EE00002F3D040C2F12002914008431946704776
:108EF000004870479C91010010B50446FFF7F8FF49
:108F00000068005D00F0010010BD3A2800D2303842
:108F100020F02002412A01D3A2F13700884201D378
:108F20004FF0FF3070470000026811441378016071
:108F300018467047D160044951610449116200210B
:108F40001161114600F0CEB9298F0000F98E0000A2
:108F5000426842B1016811F8013B23B1521EC0E9D9
:108F60000012184670470121C160881E7047426890
:108F70005AB1C368016843B983688B4205D0491E62
:108F8000521CC0E90012002070474FF0FF307047BC
:108F90002DE9F05F82460078002715468B460AF1DE
:108FA0000104B946302801D09DB113E014F8010B3B
:108FB0000127782803D0582801D045B10AE00DB127
:108FC000102D07D10027102514F8010B02E0082509
:108FD00000E00A250026B0460EE005FB080005FB70
:108FE00006F1012701EB10461FFA80F8B6F5803F25
:108FF00000D3B94614F8010B2946FFF786FF002875
:10900000EBDABBF1000F05D00FB1641E00E054464F
:10901000CBF80040B9F1000F06D003F083F802212D
:109020000160C81EBDE8F09F48EA0640FAE7002943
:10903000A8BF7047401C490008BF20F001007047DE
:1090400010B4B0FA80FC00FA0CF050EA010404BF3E
:1090500010BC704749B1CCF1200421FA04F411FA94
:109060000CF118BF012121430843A3EB0C01CB1DD8
:109070004FEA00614FEA102042BF002010BC704749
:1090800000EBC35010440029A4BF10BC7047401C23
:10909000490008BF20F0010010BC704710B5141E35
:1090A00073F1000408DA401C41F1000192185B41A1
:1090B0001A4301D120F0010010BD2DE9F04D924678
:1090C0009B4611B1B1FA81F202E0B0FA80F220328F
:1090D0009046FFF7ECFE04460F4640EA0A0041EADC
:1090E0000B0153465A46084313D0114653EA010078
:1090F00019D0C8F14002504600F0E4F805460E468B
:10910000504659464246FFF7D2FE084305D001209B
:1091100004E020463946BDE8F08D0020054346EACC
:10912000E0762C4337430A986305E40AA0EB080075
:109130000022FD0A44EA47540A3002D500200146C5
:10914000E9E7010510196941DDE9084500196941A0
:10915000BDE8F04DA2E770B521F0004303430CD009
:10916000C1F30A550024D5EB040564EB0403D617BC
:10917000AD1AB34102DB0020014670BD201841EB5F
:10918000025170BD2DE9F04D00231A461B1A8A4189
:1091900003DB00200146BDE8F08DC1F30A52C1F3A4
:1091A000130141F480154FF0000BD10702D10018D4
:1091B0006D41521E0027044640F2FF11384601EB74
:1091C000620A3E468046024600204FF4801100F0BD
:1091D00079F8C2197141BB1846EB0100B4EB030CDE
:1091E00075EB000C04D3E41A65EB000517460E4638
:1091F000241908F101006D4180463428E3DDF91996
:1092000046EB0600091BA84103D24FF0FF3213467C
:1092100001E0002213461BEB070046EB0A51BDE8B4
:10922000F04DFFF73BBF0EB540F2334202920022F1
:10923000CDE900221346FFF740FF03B000BDC1F3A4
:109240000A52C1F3130140F2FF3341F480119A42F4
:1092500002DA00200146704740F233439A42A2F2FC
:10926000334202DC524200F02DB8FFF720BE00006E
:1092700030B5041E71F1000404DB4FF0004440429D
:1092800064EB0101141E73F1000405DB1C464FF072
:109290000043524263EB0403994208BF904230BD41
:1092A000064C074D06E0E06840F0010394E8070033
:1092B00098471034AC42F6D3FEF7B2FF309A010063
:1092C000509A0100202A04DB203A21FA02F0002102
:1092D000704721FA02F3D040C2F1200291400843C6
:1092E000194670472DE9F34F8BB04FF0000801F19C
:1092F0000C000C464FF0010B46460DF1080A019098
:109300006269012101989047051E2DD0252D2CD092
:10931000216A8847C0B16269012101989047216A9A
:1093200088470028F7D1411E62690198904700E004
:10933000761CA1690B988847216A88470028F7D1D5
:10934000E1690B988847DBE7A1690B9888470746D6
:10935000A84201D1761CD3E7E1690B9888477F1CAE
:1093600002D1B8F1000F6FD046E1002762693D4697
:109370003946019890472A2804D162690121019851
:1093800090470125DFF88492626901210198904796
:10939000A0F130010A290AD24F45E5DC07EB87012D
:1093A00000EB4107303FDFD445F01005ECE7E9065C
:1093B00001D46FF000476C280AD04C2814D06828DC
:1093C00015D06A280DD074281CD07A281AD01DE038
:1093D00062690121019890476C2802D045F004058C
:1093E00014E045F002050DE045F020050AE0626951
:1093F000012101989047682802D045F0080505E052
:1094000045F400656269012101989047C4E901575C
:1094100065283DD019DC58287AD00CDC452837D097
:1094200004DC252826D0412831D131E046282FD030
:1094300047282CD12CE05B2877D0612828D06328DE
:109440007CD0642823D15AE0D0E06F2848D008DCD3
:1094500066281DD067281BD0692821D06E2816D118
:1094600027E0702845D0732868D0752847D0782821
:109470000DD14DE0A1690B988847054625283FF49A
:1094800069AFE1690B9888476D1C3FF46AAFB3E0A0
:1094900023466A466FF001000B99FFF78BF99EE0B7
:1094A00045F040006060A80723464FF0000236D424
:1094B0003EE0E8077FF447AF2068011D21600068A7
:1094C000290501D506701BE7290701D5068017E796
:1094D000A90703D5F117C0E9006111E706600FE79E
:1094E00045F040006060A80723464FF0080216D4FC
:1094F0001EE040F60E0125EA0100606016E045F02E
:1095000040006060A80723464FF00A0207D40FE02E
:1095100045F040006060A80708D5234610226FF090
:1095200001000B99AFF3008059E007E023461022B9
:109530006FF001000B99FEF793FF50E04FF0000928
:109540004F464B46632802D05B2806D040E0E80631
:1095500001D40120A06001273AE06269012101984D
:1095600090475E2805D14FF001096269494601988C
:109570009047216939B900210A46534643F8212012
:10958000491C0829FADBB0B3216969B9C11700EB9E
:10959000D16253110AEB830122F01F02821A0120CB
:1095A0000B68904003430B6062690121019890476A
:1095B0005D28E8D1B9F1000F09D00020514651F8DB
:1095C0002020D24341F82020401C0828F7DB02ABC2
:1095D000224600976FF001000B99FEF7E7FF002885
:1095E0000CDA401C08D1BBF1000F05D04FF0FF3062
:1095F0000DB0BDE8F08FFFE74046F9E7E90701D17C
:1096000008F1010806444FF0000B79E6CCCCCC0CF5
:1096100070B58C1810F8015B15F0070301D110F834
:10962000013B2A1106D110F8012B03E010F8016B61
:1096300001F8016B5B1EF9D12B0705D40023521EE4
:109640000DD401F8013BFAE710F8013BCB1A921C4C
:1096500003E013F8015B01F8015B521EF9D5A1424A
:10966000D8D3002070BD000010B508680022114654
:10967000401CFFF7BBF904460B49A0F51660884271
:109680000FD8214609A00FF05FF80B48416CA142AA
:1096900005D044644FF4FE7120300FF037FA0020FB
:1096A00010BD012010BD0000207B1E00424155442A
:1096B0003D25640D0A000000600400200021012205
:1096C00000B5900782600260054A01F0FBF80128AE
:1096D00004D0491C9142F8DB012000BD002000BDF0
:1096E000A08601000548016841F0807101600448CE
:1096F000016841F00101016070470000FCED00E0ED
:10970000001000E002F092B810B50868002211467F
:10971000401CFFF76BF906490028086C04D040F0A4
:1097200001000864002010BD20F00100F9E70000EE
:10973000600400202DE9F84F884624200CF052F9EF
:1097400000900C200CF04EF9834624200CF04AF9CE
:1097500082460C200CF046F92C49814624220C4606
:1097600000980CF0E9FA29490C2224310D4658469C
:109770000CF0E2FA2549242238310E4650460CF00E
:10978000DBFA22490C225C310F4648460CF0D4FA31
:1097900008F07AFB08F0EAFB2422204600990CF03E
:1097A000CBFA0C22594628460CF0C6FA2422514620
:1097B00030460CF0C1FA0C22494638460CF0BCFA8F
:1097C00013A1D8F800000DF0FDFA38B90F48083899
:1097D00007F01CFD0D48303007F018FD4FF4FE7106
:1097E0000D480FF093F900980BF0DEFB58460BF094
:1097F000DBFB50460BF0D8FB48460BF0D5FB0021B5
:10980000084601F049FE0020BDE8F88FD805002089
:109810003D52455345540000800400202DE9F0439B
:109820008BB00D4652A00EF08FFF55A128680DF0A9
:10983000C9FA554C4FF4FE7804F1200604F5B874CB
:1098400000284DD05148011FCDE905100A1F131FF4
:10985000CDE903321038011F0A1F0092CDE9011033
:10986000131F083A4AA12868FEF7DEFD464D092875
:109870003AD09FED4E0A032107A80FF014F90A20F1
:109880000DF0AEFC002405F51D794FF44877032256
:10989000494607A80EF0F1FF0A200DF0A1FC641C58
:1098A000BC42F4DBF0EE080A9FED410A374907A8F5
:1098B000091D0C460FF0D2F8032120460FF0A4F842
:1098C00095ED690AF7EE000A30EE600A85ED690A47
:1098D000414630460FF01AF90BB00020BDE8F08386
:1098E000204607F093FC3EE0002295ED5E0A11460B
:1098F000204609F0D2FA95ED5F0A012200212046A8
:1099000009F0CBFA95ED600A02220021204609F009
:10991000C4FA95ED610A00220121204609F0BDFA42
:10992000012295ED620A1146204609F0B6FA95ED3E
:10993000630A02220121204609F0AFFA95ED640A7C
:1099400000220221204609F0A8FA95ED650A0122BD
:109950000221204609F0A1FA022295ED660A11467D
:10996000204609F09AFA214612A006F07DFBAFE7E7
:10997000626567696E20464341320D0A00000000AF
:109980003D5245534554000060040020F805002076
:109990003D25662C25662C25662C25662C25662CF7
:1099A00025662C25662C25662C2566000000000007
:1099B0000AD7A33A6D61746C616200002DE9F04F23
:1099C0002DED0C8B9DB00C460026B24616AA0868F9
:1099D000FEA1FEF729FD19AB16AAFDA12068FEF72E
:1099E00023FDFDA119A80DF0EDF908B94FF0010A0A
:1099F0000321084609F0A6FA03210A90084609F057
:109A0000A1FADFF8D89311900021A9F8F212D9ED4C
:109A100021CAB7EE00CA89ED21CA0321062009F048
:109A200091FA0F900421062009F08CFA0E90032180
:109A3000042009F087FA15900421032009F082FA26
:109A40009FEDE7DA10900321B0EE4D0A0BA80FF05E
:109A50002AF8B0EE4D0A032107A80FF024F8B7EE5C
:109A6000000A022200210F9809F017FABFEE000A3F
:109A7000022201210F9809F010FAB7EE000A012224
:109A800002210F9809F009FABFEE000A0122032112
:109A90000F9809F002FAB7EE000A002204210F988D
:109AA00009F0FBF9BFEE000A002205210F9809F02A
:109AB000F4F95246CBA016990EF046FE002409F5A3
:109AC00020702546A04627461890B9F8F2020128D2
:109AD00005D9032207A818990EF0CFFE7F1CB9F80C
:109AE000F20203284AD1280748D400EE107AC6496A
:109AF00007A8F8EE400A12918CEE200AF0EE080A50
:109B00000EF0ACFFDDE9110200210DF09EFFDDE952
:109B1000110201210DF099FFDDE9110202210DF082
:109B200094FF0322B9A0129906F0ECFAAB4845F075
:109B3000080500F5CE7217922C3A00F5D470CDE9E5
:109B40001302FFEE00AABAF1000F01D045F00305A1
:109B5000CB46032207A818990EF08FFEBBF8F2023D
:109B60007F1C01280ED9A8494FF000090322A0311B
:109B70000BA80EF082FE08F101000CE00A200DF0A7
:109B80002FFBA2E74FF00109B0EE4D0A03210BA80D
:109B90000EF089FF0020804626B1012E11D0022E42
:109BA0000ED113E00DF01CFC1B90B0EE4D0A03210A
:109BB00007A80EF078FF0027B9F1000F00D00126AA
:109BC000D6E0B9F1000FFBD10226D1E028067DD402
:109BD0000DF006FC1B99401A00EE100AB8EE400A80
:109BE000DFED8C0AC0EE208A18EE900AFFF7D0F85D
:109BF00041EC100B88A053EC102B02F041FA002628
:109C00009FED88BBDFF824929DED160A874907A8CF
:109C1000B8EEC00A80EE288A00EE107AF8EE400A0C
:109C20008CEE200AF0EE080A0EF018FF09EB860011
:109C300090ED000AB0EEC00A10EE100AFFF7A8F887
:109C400041EC190BB0EEC8AA1AEE100AFFF7A0F803
:109C500053EC192BFEF7A4FF53EC1B2BFFF7ACF8CA
:109C60003AD218EE901A7248814235DD1AEE101A77
:109C7000814231DD1AEE100A6E4988422CDA09EB76
:109C800086006B4990ED000A38EE400AB0EEC00A3B
:109C900010EE100A884201DDB1EE488A6348634A3B
:109CA0000C3800EB8600314680ED008A0A980DF0F2
:109CB000CCFE18EE100AFFF76BF841EC100B5EA01B
:109CC00053EC102B02F0DCF9032200E04FE057497F
:109CD0005DA006F017FA03E0761CF6B2032E93D3CC
:109CE00026B1012E06D0022E09D10CE045F0010567
:109CF00057A002E045F0020559A002F0C1F9E8437F
:109D0000000704D033E045F0040559A0F5E75CA056
:109D10000EF01AFDBAF1000F2ED0BAF1000F26D0C6
:109D200018EE100AFFF734F841EC100B42A053EC88
:109D3000102B02F0A5F903223C4943A006F0E2F9FA
:109D400099ED020ADBED770A4E4630EE600A89EDA6
:109D5000020A139807F05AFAD6ED020A02221146B7
:109D600088EE200A139809F098F845F0800500263F
:109D7000B8F1460F28D0DEE10321084609F0E2F8E9
:109D800006460321084609F0DDF8284981460C39CA
:109D900006F028F911990A980DF014FF30460A9937
:109DA00008F0D4FA31464846139A09F02BFA48468F
:109DB0000BF0FAF830460BF0F7F80A980BF0F4F8CD
:109DC00011980BF0F1F8D0E768E000003D25640041
:109DD0003D25642C253373005A4958006004002047
:109DE00000000000626567696E2061636320616E38
:109DF00064206779722063616C3A25642C206F704F
:109E0000743A25640D0A000034060020626961730B
:109E10003A000000000048436674696D653A2566A3
:109E20000D0A00000000000000000840480C00205F
:109E30000000404000004843746865726F793A251D
:109E400066200D0A000000006163743A0000000003
:109E500047595220582020666F756E64210D0A0004
:109E600047595220592020666F756E64210D0A00F3
:109E7000475952205A2020666F756E64210D0A00E2
:109E8000616C6C20677972206461746120636F6C0F
:109E90006C65637465640D0A0000000020067CD4C4
:109EA000DDED0B0A4FF000089FEDBF0A03210BA860
:109EB00080EE801A8DED001ADDED0C0A80EE801A1E
:109EC0008DED011ADDED0D0A80EE801AB0EE4D0A1F
:109ED0008DED021A0EF0E7FD8DED03CA9DED000A2F
:109EE000DFF8C892B0EEC00A10EE100A48451FDA3B
:109EF0009DED010AB0EEC00A10EE101A494517DABE
:109F00009DED020A30EE4C0AB0EEC00A10EE101AB7
:109F100049450DDAE0070BD144F001046A460021FF
:109F20000E980DF0A7FD04226946A1A006F0EAF8FC
:109F30009DED000AB0EEC00A10EE100A48451FDA87
:109F40009DED010AB0EEC00A10EE101A494517DA6D
:109F50009DED020A30EE6A0AB0EEC00A10EE101A49
:109F600049450DDAA0070BD444F002046A460121EA
:109F70000E980DF07FFD042269468EA006F0C2F80F
:109F80009DED000AB0EEC00A10EE100A484521DA35
:109F90009DED020AB0EEC00A00E0CCE010EE101A0F
:109FA000494517DA9DED010A30EE4C0AB0EEC00AC1
:109FB00010EE101A49450DDA60070BD444F0040482
:109FC0006A4602210E980DF055FD042269467AA0DA
:109FD00006F098F89DED000AB0EEC00A10EE100AE7
:109FE00048451FDA9DED020AB0EEC00A10EE101AC5
:109FF000494517DA9DED010A30EE6A0AB0EEC00A53
:10A0000010EE101A49450DDA20070BD444F008046D
:10A010006A4603210E980DF02DFD0422694667A0C3
:10A0200006F070F89DED010AB0EEC00A10EE100ABD
:10A0300048451FDA9DED020AB0EEC00A10EE101A74
:10A04000494517DA9DED000A30EE4C0AB0EEC00A21
:10A0500010EE101A49450DDAE0060BD444F0100456
:10A060006A4604210E980DF005FD0422694654A0AD
:10A0700006F048F89DED010A4846B0EEC00A10EE21
:10A08000101A81421FDA9DED020AB0EEC00A10EEEE
:10A09000101A814217DA9DED000A30EE6A0AB0EE1E
:10A0A000C00A10EE101A49450DDAA0060BD444F090
:10A0B00020046A4605210E980DF0DCFC0422694656
:10A0C00040A006F01FF8E043800634D13EA00EF019
:10A0D0003BFBDDE90E10159A08F069FD1099159803
:10A0E0000EF062FA04AA0021109807F00FFA04AAF1
:10A0F000002114980DF0A9FC04AA0121109807F082
:10A1000005FA04AA012114980DF09FFC04AA02216B
:10A11000109807F0FBF904AA022114980DF095FCA1
:10A120000321179A109807F0F1F9032117980EF000
:10A130003DFC44F080040A200DF052F820067FF523
:10A1400008AD2806FBD527A001F09AFF27A0149997
:10A1500005F08AFF032225A0179905F0D3FF26A05A
:10A1600001F08EFF21A0139905F07EFF03221FA0AE
:10A17000129905F0C7FFCBED21CA4FF4FE712048BC
:10A180000EF0C4FC0E980AF00FFF0F980AF00CFFB7
:10A1900015980AF009FF10980AF006FF1DB000207C
:10A1A000BDEC0C8BBDE8F08F00008C42CDCC4C3E5A
:10A1B0005A2B3A005A2D3A00592B3A00592D3A00A1
:10A1C000582B3A00582D3A00616C6C206163632073
:10A1D0006461746120636F6C6C65637465640D0AFF
:10A1E000000000006163630D0A0000006E6F686587
:10A1F00061646572000000006779720D0A0000005A
:10A20000800400202DE9F0430C4608688BB000253F
:10A2100051A10CF0D7FD524F4FF4FE7807F1200604
:10A2200007F5D47700284ED04E48011FCDE9051020
:10A230000A1F131FCDE903321038011F0A1F0092B5
:10A24000CDE90110131F083A47A12068FEF7ECF88A
:10A2500009283CD09FED4B0A032107A80EF023FCF0
:10A2600049A00EF071FADFF8FC90002409F1B00962
:10A270004FF448770322494607A80EF0FEFA0A2059
:10A280006D1C0CF0ADFF641CBC42F3DB00EE105AF9
:10A29000B7EE001A3349F8EEC00A091D0C4607A8AC
:10A2A00081EE200AF0EE080A0EF0D8FB03222146C8
:10A2B00039A005F027FF414630460EF027FC0BB0D1
:10A2C0000020BDE8F083384606F0A0FF3FE0244CB4
:10A2D0000022114694ED6C0A384608F0DEFD94ED3C
:10A2E0006D0A01220021384608F0D7FD94ED6E0A70
:10A2F00002220021384608F0D0FD94ED6F0A0022BA
:10A300000121384608F0C9FD012294ED700A11467A
:10A31000384608F0C2FD94ED710A02220121384648
:10A3200008F0BBFD94ED720A00220221384608F0C5
:10A33000B4FD94ED730A01220221384608F0ADFD08
:10A34000022294ED740A1146384608F0A6FD3946FB
:10A3500011A005F089FEAEE73D524553455400007B
:10A3600060040020300600203D25662C25662C2543
:10A37000662C25662C25662C25662C25662C2566E4
:10A380002C25660000000000626567696E20464368
:10A3900047320D0A000000006D61746C61620000BC
:10A3A0002DE9F0410F46086886B02AA10CF00AFD9D
:10A3B0002A4C4FF4FE7804F5037604F1200504F5E9
:10A3C000F07478B104A903A8CDE9000102AB05AA95
:10A3D00023A13868FEF728F8042819D0012006B018
:10A3E000BDE8F081204606F011FF214620A005F0CF
:10A3F0003BFE9FED210A032130460EF054FB174827
:10A400009FED1E0A002180ED2A0AC0F8A4101AE070
:10A410000599032908DA02AA20460DF02BFB2146F4
:10A4200013A005F021FE0EE00DD14FF0030202A9AA
:10A4300030460EF03DFA12A00EF086F9032202A972
:10A4400013A005F05FFE414628460EF05FFB00209A
:10A45000C5E700003D52455345540000600400200C
:10A460003D25642C25662C25662C25660000000001
:10A470006D61746C61620000000000000000C64263
:10A48000626961732073657420746F3A0D0A00006D
:10A490006E6F68656164657200000000094B0221FF
:10A4A000196009490A68002AFCD0064A121D10608A
:10A4B00008680028FCD00020186008680028FCD03C
:10A4C0000020704704E5014000E401404FF4805053
:10A4D000704770472DE9F0430023DFF85080DFF824
:10A4E00050901EE0C41804F00305AC43ED004FF09B
:10A4F000FF0CCE5C0CFA05FC2768AE4027EA0C077F
:10A500003E4401254F46C9F80050D8F80050002DB0
:10A51000FBD02660D8F80040002CFBD000243C6023
:10A520005B1C9342DED30020BDE8F08300E40140D1
:10A5300004E501402DE9F0410BF066F900240D4DD2
:10A540000D4F264605EB8400D0F80011012909D1F2
:10A55000C0F80061385D07F03BF818B1416809B1F7
:10A5600000208847641C082CECDBBDE8F0410BF0B0
:10A5700063B9000000600040AC00002070B50C46DC
:10A5800005460A2A2CD2DFE802F00511072B132B0F
:10A590002B2B131DFF2200E00122284601F024F995
:10A5A00000222146284600F077F819E00022F4E75F
:10A5B000042A05D00022284600F01CF80122F0E70A
:10A5C0000122F8E70122284600F066F80122214620
:10A5D000284600F00FF801222146284600F04AF8EC
:10A5E000284670BD02480068C84000F0010070476E
:10A5F00010050050012088400AB1034901E00249DA
:10A60000091D0860704700000805005030B5184A61
:10A6100001244023082824D2DFE800F0040B0D12A7
:10A620001416181F11B1C2F804431AE0C2F8084307
:10A6300017E0022000E0042089B1C2F8040310E012
:10A640000820F9E71020F7E72020F5E711B1C2F85C
:10A65000043306E0C2F8083303E08020ECE7C2F8D8
:10A6600008034FF0E020C0F80031002030BD0000AA
:10A6700000600040880000F1A040D0F8001721F4ED
:10A68000E061C0F80017002A05D0D0F8001741F4A7
:10A69000C061C0F800177047880000F1A040D0F8F2
:10A6A000003723F00203C0F8003701208840012A58
:10A6B00009D007490860091D0860081D016821F0DC
:10A6C0000101016070470249091F086070470000DE
:10A6D0001C050050880000F1A040D0F8001721F4BC
:10A6E0004031C0F80017012A08D0022A05D1D0F85D
:10A6F000001741F44031C0F800177047D0F8001738
:10A7000041F40031F7E7000070B586B0086804AB8B
:10A710006A4625A1FDF788FE022813D124A16846C8
:10A72000FDF765FE234C4FF4FE7604F1200560B181
:10A7300021A16846FDF75BFEB0B120A16846FDF798
:10A7400056FEF0B1012006B070BD1DA004990BF0BB
:10A75000CBF854F8D00F04994FF6FF7220F47F40E5
:10A7600002EA0121084317E01CA004990BF0BCF891
:10A7700054F8D00F049920F47F00C9B240EA014098
:10A780000AE01BA004990BF0AFF854F8D00F04991D
:10A7900020F07F4040EA01602060314628460EF0FC
:10A7A000B5F90020CFE700003D2533732C25640068
:10A7B000434E54006004002046525100524F4C005A
:10A7C000646576696365206D617820636E742073BB
:10A7D000657420746F3A25640D0A00007266206665
:10A7E00072712073657420746F3A25640D0A00003D
:10A7F000726620726F6C652073657420746F3A25E1
:10A80000640D0A0070B50C460868FDF7E9FD104DAF
:10A81000B0B1206800221146401CFEF7E7F804287A
:10A8200013D855F8D01FC0B221F0FF0101430848EA
:10A8300029604FF4FE7120300EF068F9002070BDE1
:10A8400095F8D01003A00DF07FFF012070BD00002F
:10A850006004002025640D0A0000000070B50C465D
:10A860000868FDF7BDFD104DB0B12068002211460B
:10A87000401CFEF7BBF8FF2813D855F8D01FC0B214
:10A8800021F0FF010143084829604FF4FE71203098
:10A890000EF03CF9002070BD95F8D01003A00DF02B
:10A8A00053FF012070BD00006004002025640D0AE4
:10A8B0000000000008B100207047014800687047A0
:10A8C000B403002002480068C00700D00120704790
:10A8D0000C0400400148006870470000000400407C
:10A8E0004FF080510A6E0260496E4160704700006F
:10A8F00008B5054B6946187801F050FA0028F9D1DF
:10A900009DF8000008BD0000E001002070B50C4675
:10A910000868FDF765FD0C4D88B1206800221146DE
:10A92000401CFEF763F8296B814206D028634FF480
:10A93000FE7105F120000EF0E9F8002070BD03A0C3
:10A94000296B0DF001FFF8E76004002025640D0A73
:10A95000000000003EB508686B4601AA4AA1FDF759
:10A9600063FD022876D19DED000AB5EEC00AF1EE36
:10A9700010FA6FDB10EE100A454988426ADC0124A8
:10A9800044A101A80CF01EFA434D70B90098FEF7DF
:10A99000FFF941EC100B41A053EC102B0DF0D4FE4D
:10A9A0009DED000A002485ED210A41A101A80CF0CB
:10A9B00009FAB0B99DED000AD5F88000BDEEC00AD5
:10A9C00020F00F0010EE101A01F00F010843C5F837
:10A9D0008000384900F00F00095C37A00DF0B4FE8C
:10A9E000002439A101A80CF0EDF9C0B99DED000AD1
:10A9F000D5F88000BDEEC00A20F0F00010EE101A6D
:10AA0000090740EA11601E21C5F8800001EAD00064
:10AA10002849091D095A2DA00DF096FE00242FA1EA
:10AA200001A80CF0CFF970B90098FEF7B1F941EC2C
:10AA3000100B2BA053EC102B0DF086FE9DED000AA1
:10AA4000002485ED220A2AA101A80CF0BBF910B15F
:10AA500084B115E016E00098FEF79AF941EC100B6E
:10AA600024A053EC102B0DF06FFE9DED000A002486
:10AA700085ED230A08484FF4FE7120300EF046F8A9
:10AA800020463EBD01203EBD3D2533732C2566008A
:10AA90000000A04042495300600400206779722002
:10AAA00062616973207468723A25660D0A000000BD
:10AAB00041524700280300204143435F52473A2553
:10AAC00064470D0A00000000475247004759525F93
:10AAD00052473A25646470730D0A0000434F4600E4
:10AAE00074656D7020636F66203A25660D0A00005C
:10AAF0004C4D4600677972206C6D66207468723A1E
:10AB000025660D0A000000007CB50C460868A8A167
:10AB1000FDF76DFCA74D28B1A7A12068FDF767FCE4
:10AB2000002825D1A5A10620CDE90001002301229E
:10AB3000DD21A5A00DF008FEAAA00DF005FEB2488B
:10AB4000AA6EB2A150F82230B2A00DF0FDFDB5A161
:10AB5000B5A02A6B0DF0F8FDD5E90A23B5A1B7A081
:10AB60000DF0F2FDA86CB8A1020CB9A00DF0ECFD3F
:10AB7000BAA12068FDF73BFC002822D1B5F8EE22EF
:10AB8000B8A1B3A00DF0E0FDB8A1BBA0D5F8E422B8
:10AB90000DF0DAFD95F880009B4900F00F001039A8
:10ABA0000A5CB9A1BAA00DF0CFFDD5F880001E2136
:10ABB00001EAD00094490C390A5AB8A1B9A00DF0A5
:10ABC000C3FDBCA12068FDF712FC40B90CF008FCE5
:10ABD000C821B0FBF1F2B9A1BAA00DF0B5FDBCA13E
:10ABE0002068FDF704FC002836D1BB49BBA005F066
:10ABF0003BFAB94903222C31BAA005F083FA0322AB
:10AC0000BB49BCA005F07EFAB349BDA0383105F0C0
:10AC10002BFAB14903226431B2A005F073FAB449AA
:10AC200003220C39B8A005F06DFAAB49B9A0703118
:10AC300005F01AFAA84903229C31AAA005F062FA8D
:10AC4000D5F88800FEF7A4F841EC100BB3A153EC43
:10AC5000102BB4A00DF078FDB5A12068FDF7C7FB5F
:10AC6000002841D16FA1B4A02A6B0DF06DFD67A142
:10AC7000B1A0AA6E0DF068FD95F8D020B1A1AEA0EC
:10AC80000DF062FDB1A1ACA06A6C0DF05DFDB1A14B
:10AC9000A9A0AA6D0DF058FDB1A1B3A06A6D0DF089
:10ACA00053FDD5F88400FEF773F841EC100BB1A109
:10ACB00053EC102BB1A00DF047FDD5F88C00FEF73A
:10ACC00067F841EC100BB1A153EC102BABA00DF0C9
:10ACD0003BFDB5F8F022B0A197A00DF035FD7E49FF
:10ACE000B0A02C3905F0C0F9B0A12068FDF77FFBBA
:10ACF000D0B915F8D02F93A18FA00DF025FD28888D
:10AD0000ABA1C0F307228CA00DF01EFD2868ACA1FA
:10AD1000C0F3074288A00DF017FD55F8D009AAA18D
:10AD2000020E85A00DF010FDA9A12068FDF75FFBC4
:10AD300040B907F02AFF07F0D7FEC822A6A144A019
:10AD40000DF002FDA6A12068FDF751FB00282DD1D2
:10AD500035F8A40FA4A1C0F3072277A00DF0F4FCEE
:10AD60006868FEF715F841EC100BA1A153EC102B0D
:10AD7000A1A00DF0E9FC2A78A2A1A5A00DF0E4FCA9
:10AD8000A868FEF705F841EC100BA4A153EC102BBA
:10AD900099A00DF0D9FCE868FDF7FAFF41EC100B23
:10ADA000A0A153EC102B94A00DF0CEFC00207CBD94
:10ADB00000000000600400203D4C00004665622059
:10ADC00032342032303231000D0A484925642025C2
:10ADD000642E25642E2564206275696C64202573B9
:10ADE0000D0A000032303130202D20323032302038
:10ADF000436F70797269676874206279204869507E
:10AE00004E55430D0A000000380300204D4F4445C5
:10AE10003A000000252D3136732564282573290D4D
:10AE20000A00000049443A00252D31367330782558
:10AE3000580D0A00555549443A000000252D313679
:10AE400073255825580D0A004F44523A000000005F
:10AE5000252D3136732564487A0D0A003D53454E41
:10AE6000534F5200677972206672710073656E737A
:10AE70006F72207374730000252D3136733078257E
:10AE80003038580D0A0000004143435F52473A00F2
:10AE9000252D3136732564470D0A00004759525F4E
:10AEA00052473A00252D31367325646470730D0ABC
:10AEB000000000003D4350550000000074696D65BE
:10AEC00000000000252D313673256420730D0A0023
:10AED0003D43414C00000000D00500204143430D9C
:10AEE0000A0000006E6F6865616465720000000012
:10AEF0001C0700205243204143430D0A000000007C
:10AF00004759520D0A0000005243204759520D0A7A
:10AF1000000000004D41470D0A00000067797220D3
:10AF2000636F6600252D313673252E34660D0A00B9
:10AF30003D55535200000000252D31367325640D18
:10AF40000A000000475749443A0000004241554476
:10AF50003A00000043414E5F424155443A00000030
:10AF600043414E5F49443A00252D31367325580D33
:10AF70000A00000047425F5448523A00252D3136FE
:10AF80007325302E34660D0A000000004C4D465FDC
:10AF90005448523A00000000494D555F434F4F520C
:10AFA000443A0000555246520D0A00003D524600F8
:10AFB0004D41585F4E4F44455F53495A453A000052
:10AFC0004652513A00000000524F4C453A000000F2
:10AFD0003D535953000000006F73207469636B0088
:10AFE0003D4853490000000076616C69643A0000F6
:10AFF0006669746572723A00252D31367325660DC7
:10B000000A00000062696E5F7374617475733A00C0
:10B01000252D313673256425250D0A00666C75785B
:10B020003A000000696E636C696E6174696F6E3A14
:10B030000000000010B5086800221146401CFDF712
:10B04000D5FC0446014606A00DF07EFB07484FF4F0
:10B05000FE71846620300DF059FD002010BD000007
:10B060004D4F44453D25640D0A000000600400205A
:10B0700010B500F001F810BD70474907090E00280F
:10B0800006DA00F00F0000F1E02080F8141D704790
:10B0900000F1E02080F800147047000010B5086847
:10B0A00000221146401CFDF7A1FCB0F57A7F10D8B4
:10B0B000094A916CB0EB114F09D089B241EA0040C6
:10B0C00090644FF4FE7102F120000DF01FFD00208E
:10B0D00010BD012010BD000060040020FEE700004C
:10B0E00070B5044600202B4B9FED2B0A0BE06288C5
:10B0F000616800FB020201EB82010A689A4201DAF0
:10B1000081ED000A401C21888142F0DC00253DE0F1
:10B110006188606805FB015100EB810090ED000A39
:10B1200010EE100AB0F1804F2FDDB0EE001AC1EE24
:10B13000000A10EE900AFDF72BFE41EC100B02F016
:10B140003BFC51EC100BFDF74FFE00EE100A002007
:10B1500018E06288616805FB020201EB8201D1ED13
:10B16000000A60EE800AC1ED000A6288616800FB97
:10B17000025201EB8201401CD1ED000A60EE800A10
:10B18000C1ED000A21888142E3DC6D1C2088A842C1
:10B19000BEDC70BD6F12833A6F12833A10B5044A59
:10B1A00004460146107800F049FE204610BD00001C
:10B1B000E0010020044B01228240186809B11043CD
:10B1C00000E0904318607047301500400148006867
:10B1D000704700000415004070B509F0F3FD104CF5
:10B1E000D4F830010F4E002540B1C4F83051FFF7BC
:10B1F000EDFF01468122B0680AF0ACFED4F83401BC
:10B2000008B1C4F83451D4F80C0108B1C4F80C5199
:10B21000F0680BF0E3F9BDE8704009F0ADBE000046
:10B220000010004000000020134900B511480860DC
:10B230000820091F0860802000F062F80E490220F3
:10B240001C310860091D0D480860091D4FF6FF708C
:10B2500008600B490020C1F800020A48016841F06B
:10B2600001010160044904200C39086006490120ED
:10B27000086000BDFF000401181500402110010006
:10B280000010004050160040FC1F004001490860BB
:10B29000704700000815004030B501244FF0E0224F
:10B2A0000223C2F80031154A072809D2DFE800F06E
:10B2B0000E0C04171A1F1500082015E0C2F804032D
:10B2C00030BDC2F8080330BD04200DE011B1C2F852
:10B2D000043330BDC2F8083330BD802004E04FF4A1
:10B2E000805001E04FF400500029EAD0E6E711B1A8
:10B2F000C2F8044330BDC2F8084330BD001000401E
:10B3000004490A6822F0FF020A600A68C0B20243D8
:10B310000A60704718150040064930B1012804D072
:10B32000022804D0032801D10420086070470320BC
:10B33000FBE700001015004001490860704700005D
:10B3400020150040254B10B51A1D082824D2DFE82F
:10B3500000F0040B131B242B333B186820F0FF0074
:10B3600018601868084316E0186820F47F401860D9
:10B37000186840EA01200EE0186820F47F00186089
:10B38000186840EA014006E0186820F07F40186025
:10B39000186840EA0160186010BD106820F0FF00D6
:10B3A00010601068084316E0106820F47F401060B9
:10B3B000106840EA01200EE0106820F47F00106061
:10B3C000106840EA014006E0106820F07F401060FD
:10B3D000106840EA0160106010BD000024150040B4
:10B3E00003490860034901208860486170470000F4
:10B3F0000415004000100040054A10600448283839
:10B40000016004480021C0F80C11012181607047DF
:10B410002C150040001000400A48016802290FD096
:10B42000016801290CD00068032809D006480021D2
:10B43000C0F8001101214160D0F800110029FBD0B3
:10B44000704700005015004000100040104801688F
:10B450000A291CD00168092919D001680B2916D0C6
:10B46000026801230B49022A05D00268012A02D092
:10B470000268032A03D1CB600268022AFCD10020B3
:10B48000C1F800010B60D1F800010028FBD0704723
:10B49000501500400010004010B504A00DF054F904
:10B4A00072B609F02DFE002010BD00004F4B0D0AB2
:10B4B0000000000070B504460068A26801219047B2
:10B4C0002069A8B10BF08CFF05460CE00BF088FF5B
:10B4D000411BE069814202D96FF0010070BD401C40
:10B4E00040080BF0B5FD2169206888470028EDD0A1
:10B4F000204606F0D8F9002070BD00001FB50F48A7
:10B500000DC88DE80D00086803AA0DA1FCF78CFF9B
:10B510000446012808D19DED030ADFED0A0A002444
:10B5200020EE200A8DED030A07499DED030A6846C7
:10B5300004F07AF904B0204610BD0000088F010025
:10B540003D25660035FA8E3C940600202DE9F04733
:10B55000086886B03D21FCF739FF05002FA0DFF811
:10B56000CCA00FC88DE80F00E9464FF0010813D0BA
:10B5700068780D2810D00A280ED068B100273E4602
:10B580002BA00DF0E1F804AA2EA1681CFCF74CFFDB
:10B59000C0B2012814D024E026A00DF0D5F8002474
:10B5A0004E464546574605FA04F1B86C084203D0AA
:10B5B000315D25A00DF0C8F8641C102CF3DB28E0E9
:10B5C00000249DF8100019F80410814205D108FAF2
:10B5D00004F006431CA00DF0B7F8641C102CF0D347
:10B5E0007F1C2C21681CFCF7F1FE050001D0102FF8
:10B5F000C9DBDAF8480082B2B2420AD06FF30F001A
:10B600003043CAF8480009484FF4FE7120300DF06D
:10B610007DFA06B00020BDE8F08700009190A0B050
:10B62000C0D0D1F06263000000D960B16004002096
:10B630006E6577207061636B6574206974656D73E6
:10B640003A0D0A00255800005B3078253032585DED
:10B650000D0A0000054B00B553F820300722C3F84F
:10B66000002500F061F8002000BD0000D88C01002A
:10B67000114B10B553F82040C4F8341553F820107E
:10B68000C1F8382553F820200021C2F8441553F89A
:10B690002020C2F8481553F82020C2F8101153F8A2
:10B6A00020200121116153F82000D0F81011002949
:10B6B000FBD0002010BD0000D88C010070B5194CE3
:10B6C000002654F8205031B1C5F8441554F8201024
:10B6D000C1F8483501E0C5F8486554F8201032B18A
:10B6E000C1F8342554F82010C1F8383501E0C1F80C
:10B6F000386554F82010C1F8206154F82010C1F8C2
:10B70000106154F820200121116154F82000D0F874
:10B7100020110029FBD0D0F810110029FBD0002007
:10B7200070BD0000D88C010010B5174B154A8C1A5B
:10B7300053F8200091421FD00ADCA1F64801B1F570
:10B74000F03113D001F5E561B1F5B82F0BD110E060
:10B750000C494942611812D00C4AD14203D1C905A3
:10B76000C0F8241510BD4FF08051F9E74FF000717B
:10B77000F6E74FF00061F3E74FF00051F0E74FF0CC
:10B780008041EDE780841E00D88C010000F7C2FFE5
:10B79000114B10B553F82040C4F8441553F820104D
:10B7A000C1F8482553F820200021C2F8341553F879
:10B7B0002020C2F8381553F82020C2F8201153F881
:10B7C00020200121116153F82000D0F82011002918
:10B7D000FBD0002010BD0000D88C0100014A516050
:10B7E00010607047CC010020880000F1A040D0F824
:10B7F000001721F00C01C0F8001742B1012A05D151
:10B80000D0F8001741F00C01C0F800177047D0F8CD
:10B81000001741F00401F7E710B509F0F5FF0BF050
:10B82000E5FDBDE810400AF007B8000000B54FF094
:10B83000E020016941F0040101616FF07F41416145
:10B840000020FFF737F8064A0449B0FBF2F04FF446
:10B850007A7208605043486000BD0000B8010020C3
:10B8600040420F0002490148086070470090D00331
:10B87000B403002070B59F489E4A00250078121D31
:10B88000111D4FF0805406280BD113781B0708D1E7
:10B890000B78C3F30313032B06D0042B04D0052B22
:10B8A00002D0062807D00EE0B4F82433924EC3F33A
:10B8B0000423336002E013781B0704D10B78C3F331
:10B8C0000313032B02D0062804D00FE08C4E8B4BC1
:10B8D00073670EE013781B0708D10B78C3F30313CB
:10B8E000032B06D0042B04D0052B02D0062807D04A
:10B8F0000EE0D4F84432834EC3F34233336002E0A7
:10B9000013781B0704D10B78C3F30313032B02D066
:10B91000062806D011E07C4B1E6826F080761E605B
:10B920000EE013781B0708D10B78C3F30313032B26
:10B9300006D0042B04D0052B02D006280AD011E033
:10B940004FF08043C3F80C51C3F810516D4B1B1FCF
:10B950001D6002E013781B0704D10B78C3F30313B7
:10B96000032B02D0062805D00CE0664E0323643674
:10B9700033600AE013781B0704D10B78C3F3031379
:10B98000032B02D006280FD016E0604E052333604B
:10B990005E4E0123783633605C4B08331D605B4D8F
:10B9A0003F232D1D2B6002E013781B0704D10B7879
:10B9B000C3F30313052B02D0062857D062E0544B83
:10B9C0001B68544D2B60524B1B1D1B682D1D2B609B
:10B9D0004F4B08331B682D1D2B604D4B0C331B68E0
:10B9E0002D1D2B604A4B10331B682D1D2B60484BBF
:10B9F00014331B682D1D2B60454B18331B68454DB8
:10BA000020352B60424B1C331B682D1D2B60404B97
:10BA100020331B682D1D2B603D4B24331B682D1DCF
:10BA20002B603B4B28331B682D1D2B60384B2C3370
:10BA30001B682D1D2B60364B30331B68354D403550
:10BA40002B60334B34331B682D1D2B60304B383348
:10BA50001B682D1D2B602E4B3C331B682D1D2B604E
:10BA60002B4B40331B682D1D2B6002E013781B0706
:10BA700008D10B78C3F30313032B06D0042B04D097
:10BA8000052B02D0062807D019E0D4F85802224A24
:10BA900000F04F00106002E0107800070FD1087826
:10BAA000C0F30310032803D0042801D0052806D1D1
:10BAB0001A480168C90702D06FF001010160D4F88B
:10BAC0003001062808D1D4F83401062804D11448DE
:10BAD000016841F4806101600B487438016841F4E9
:10BAE00070010160BFF34F8FBFF36F8F0E490D4898
:10BAF000086070BDE00F00F0403501400DF0ADBAB8
:10BB000000C007403C050040FCED00E0105600403E
:10BB10000404001020C50040E40E00400004004072
:10BB20003C1700400090D003B4030020BFF34F8FB8
:10BB300004480168044A01F4E06111430160BFF365
:10BB40004F8FFEE70CED00E00400FA0538B5104910
:10BB50000020C1F840010BF039FF0E4C102000907E
:10BB600004226946E0680AF0F5F960684FF4C8718C
:10BB7000401CB0FBF1F201FB12006060002806D10E
:10BB80000820009004226946E0680AF0E3F938BD15
:10BB9000008000407C03002070B51B480025C0F8E1
:10BBA00040510BF01DFC00EB800118484FF47A72F5
:10BBB0000068B0FBF2F24FF0E02043698069144E58
:10BBC000181AB0FBF2F00B183078124C48B13570EF
:10BBD00001206070104890F83000A070E5700320DC
:10BBE00007E008206070A21C0B49DE2003F0EEFF86
:10BBF000401C20708122074970680AF0ABF9F06898
:10BC0000BDE870400AF0EABC00A00140B403002087
:10BC100000000020BC03002060040020024A012133
:10BC200052F82000C1607047E88C0100F0B5114D5A
:10BC30000446032755F824000E46C0F81075204628
:10BC400000F04AF855F824100020C1F8040555F812
:10BC50002400C0F8087555F82400D0F8002201230C
:10BC600003FA06F10A43C0F8002255F824000360E5
:10BC7000F0BD0000E88C010010B50124103104FA79
:10BC800001F30B4951F8201012B1C1F8043301E05F
:10BC9000C1F808330649091F085600F01F018C40FF
:10BCA0004009800000F1E020C0F8004110BD000014
:10BCB000E88C010010B5074C0123083154F820002E
:10BCC0008B40D0F800120AB1194300E09943C0F844
:10BCD000001210BDE88C010030B5084C02234FF46F
:10BCE000A86523605300064A05EB810152F8204005
:10BCF000635052F820000121C16030BDDC010020FA
:10BD0000E88C0100024A012152F8200001607047CE
:10BD1000E88C0100024A012152F82000416070477E
:10BD2000E88C010070B51A4CD4F81001194EE8B136
:10BD3000D4F80403C00619D5308B800512D5164DF2
:10BD4000706D29780144002000F028F82878F16D02
:10BD5000401CC0B2B0FBF1F201FB1200287040F2AF
:10BD6000031100E001210B4809F036FBD4F8200153
:10BD700000280BD0D4F80403C00507D50020C4F870
:10BD80002001B06DBDE870400AF028BC70BD000015
:10BD90000020004058070020B4010020074A52F854
:10BDA0002000D0F810213AB10022C0F81021044838
:10BDB000407808701046704701207047FC8C0100E5
:10BDC000E001002070B5184D0446082055F82420E5
:10BDD000C2F80005204600F04DF855F82400D0F8D0
:10BDE000001241F02001C0F8001255F82410012083
:10BDF000C1F8380555F824200C49C2F8341555F817
:10BE00002410086055F824108860094D287840B146
:10BE100006480849401E04700748FFF7DFFC002071
:10BE20002870002070BD0000FC8C0100E1010020A2
:10BE3000D4010020F1A800009DB1000013B50C4909
:10BE4000012251F82030C3F8482551F8204001ABB9
:10BE5000C4F8443551F820309A6051F82000D0F8E9
:10BE60001C110029FBD00021C0F81C111CBD0000D2
:10BE7000FC8C010070B5094B00221C1F53F8325096
:10BE80008D4206D103EBC20554F820606D68C6F8F8
:10BE90002455521C0A2AF1D370BD0000008D010008
:10BEA00030B5124B01241B5603F01F05AC405B0953
:10BEB0009B0003F1E023C3F800410C4B1B1D31B183
:10BEC000012902D002290FD109E0102101E04FF42D
:10BED000807153F820002AB1C0F8041304E04FF435
:10BEE0000031F6E7C0F80813002030BDF88C0100DF
:10BEF00030B5094B002453F82050C5F8204153F8C1
:10BF00002040C4F8482553F82020C2F8441553F8BF
:10BF100020000121816030BDFC8C0100F0B50C4691
:10BF2000086887B038A10AF04DFF394D4FF4FE770D
:10BF300005F1200605F5A275C0B13648011FCDE90F
:10BF400005100A1F131FCDE903321038011F0A1F05
:10BF50000092CDE90110131F083A2FA12068FCF7C9
:10BF600063FA092806D0012007B0F0BD284605F085
:10BF70004DF93FE0264C0022114694ED530A284625
:10BF800006F08BFF94ED540A01220021284606F0AA
:10BF900084FF94ED550A02220021284606F07DFF19
:10BFA00094ED560A00220121284606F076FF012270
:10BFB00094ED570A1146284606F06FFF94ED580A93
:10BFC00002220121284606F068FF94ED590A00225A
:10BFD0000221284606F061FF94ED5A0A012202214F
:10BFE000284606F05AFF022294ED5B0A11462846C5
:10BFF00006F053FF29460FA004F036F839463046C4
:10C000000CF084FD0020AFE73D524553455400003D
:10C0100060040020CC0500203D25662C25662C25DB
:10C02000662C25662C25662C25662C25662C256617
:10C030002C2566006D61746C6162000000EE100AD0
:10C040009FED081A0849F8EE400AB7EE000A10EE14
:10C05000810ABCEEC00A10EE100A086003490120F4
:10C06000086070476F120342040501400000014060
:10C0700002490148086070473546526E000601408B
:10C080000FB4054B10B503A9044A029802F0E0FB77
:10C0900010BC5DF814FB00003D140100D801002025
:10C0A0007CB5044600201D46164600290BD0491ECB
:10C0B000CDE90041044B6A462946304602F0C8FBF0
:10C0C000009A002111707CBD29F2000003B4019890
:10C0D0004100009850EAC12018BF04204A0D18BF43
:10C0E00040F0010040F2FF72B2EB515F08BF40F038
:10C0F0000200012808BF052002B070474100080275
:10C1000018BF04200A0E18BF40F001004FF07F4214
:10C1100032EA010108BF40F00200012808BF0520F3
:10C120007047000000487047B803002010B510EEBB
:10C13000104A4FF01A402DED028B00EB4400B0F195
:10C14000C85F4AD84FF0FC40B0EB440F22D2B0EEAB
:10C15000C00AF7EE000A30EEC00AF6EE000A20EE42
:10C16000208A18EE100A0BF0FCFC00EE100A14F006
:10C17000004F1DBF9FED281ADFED280AB1EE400ADF
:10C180009FED271A08BFF0EE410AF8EE001A20EEE4
:10C19000210A05E020EE008A9FED221ADFED220A37
:10C1A000DFED221A9FED222A70EEC00A20EE080A67
:10C1B00008EE212ADFED1F1A48EE021A9FED1E2A13
:10C1C00008EE212ADFED1D1A48EE021ABDEC028BA3
:10C1D00040EE610A30EE810A10BD4FF0CC40B0EB6A
:10C1E000440F82BF9FED160ABDEC028B10BD4FF0CD
:10C1F0007F40B0EB440F05D2BDEC028BBDE8104090
:10C2000001F0F2BC012001F0DFFDBDEC028BBDE8C6
:10C21000104001F0EDBC00000000494022AA7D3A28
:10C22000000000000000C93F22AAFD3924FE1C3D89
:10C23000C78AD83C1E67383D1B93993DAFAA2A3E5A
:10C24000DB0FC93F0000000070B5C1482DED020BA7
:10C250002DED0E8B82B0119D25F000449FEDBEDBCD
:10C260009FEDBFEB84423EDBA4F140511098A1F159
:10C270007F6108430FD0BC48844202DC28D110986B
:10C2800030B39DED100B02B0BDEC0E8B02B0BDE8DB
:10C29000704001F065BC9DED100B53EC1D2B51EC73
:10C2A000100BFCF783FC9DED100B41EC180B53ECCD
:10C2B0001E2B51EC100BFCF779FC53EC182BFCF700
:10C2C000CEFB41EC100B02B0BDEC0E8B02B070BD8A
:10C2D000012001F079FD02B0BDEC0E8B02B0BDE88B
:10C2E000704001F051BCA1489FEDA18B844256DA09
:10C2F0009DED100BB4F1795F0ADA51EC100BFFF7EA
:10C30000E5FE042808BF01F05FFC9DED100BDAE7A5
:10C3100053EC102B51EC100BFCF748FC41EC190BC3
:10C3200095480621B0EE490AF0EE690A784401F01A
:10C3300080FB53EC192B51EC100BFCF737FC41EC54
:10C340001A0B8E48B0EE490AF0EE690A04217844CF
:10C3500001F06FFB53EC192B51EC100BFCF726FC92
:10C3600053EC182BFCF77BFB41EC100B51EC1A0B38
:10C3700053EC102BFCF78CFCCDE900019DED000B7C
:10C3800053EC102B9DED100B51EC100BFCF70EFC39
:10C390009DED101B53EC112BFCF761FBD2E09DEDE2
:10C3A000100B51EC100B04F045FF53EC182BFCF76D
:10C3B000FAFB9FED730BCDE9000153EC102B9DEDC3
:10C3C000000B51EC100BFCF7F1FB41EC190B6E4824
:10C3D0000621B0EE490AF0EE690A784401F029FB23
:10C3E00053EC192B51EC100BFCF7E0FB41EC1B0B51
:10C3F0006648B0EE490AF0EE690A0421784401F07B
:10C4000018FB53EC192B51EC100BFCF7CFFB53EC42
:10C41000182BFCF724FB41EC1C0B51EC190B0BF017
:10C4200069FB41EC180B5A489FED5BABA04222DC44
:10C4300053EC1C2B51EC1B0BFCF72AFCCDE9000143
:10C440009DED000B51EC180B53EC102BFCF7AEFBE1
:10C4500053EC182BFCF703FB53EC1A2BFCF7A6FB51
:10C4600053EC1D2BFCF79CFB53EC1E2BFCF79BFBAA
:10C4700041EC100B5FE08DED008B002000909DEDF6
:10C48000000B51EC180B53EC102BFCF7E8FA9DED68
:10C49000000B41EC1E0B53EC102B51EC100BFCF776
:10C4A00085FB53EC192BFCF77EFB53EC1E2BFCF7A2
:10C4B000EFFB41EC190B53EC1C2B51EC1B0BFCF765
:10C4C000E7FB41EC1B0B53EC1A2B51EC190BFCF75F
:10C4D0006DFB53EC1D2BFCF766FB41EC190B53EC89
:10C4E0001A2B51EC180BFCF761FB53EC1B2BFCF7E0
:10C4F0005DFB53EC192BFCF753FB9DED000B41EC5E
:10C50000180B53EC1A2B51EC100BFCF74FFB9FED63
:10C51000249B53EC192BFCF746FB41EC100B51EC20
:10C52000180B53EC102BFCF73BFB53EC192BFCF7CF
:10C530003AFB41EC100B002D3FF7C5AE51EC100B50
:10C5400081F0004141EC100BBDE60000000000004E
:10C550000000F03F00000000075C143326A6913C69
:10C56000182D4454FB21F93F0000F07F0000E03F0C
:10C57000000000000000F03F50CC00005ECC000046
:10C58000000000000000E03FA2CB0000B0CB0000A4
:10C590003333EF3F000000000000000000000040C7
:10C5A000182D4454FB21E93F70B59B482DED020B3B
:10C5B0002DED068B079D25F00044A04218DC97481E
:10C5C000844202DC0AD1069840B19DED060BBDEC19
:10C5D000068B02B0BDE8704001F0C2BA002DCCBF9E
:10C5E0009FED8F0B9FED900BBDEC068B02B070BDE5
:10C5F0008F48A04215DD8F48A042D8BF4FF0FF34CE
:10C6000058DD9DED060B51EC100BFFF75FFD042884
:10C6100008BF01F0D9FA9DED060BBDEC068B02B008
:10C6200070BD9DED060B51EC100B04F003FECDE93F
:10C63000060181489FED828BA0423CDD8248A042EA
:10C640001FDD00249FED82AB9DED060B53EC1A2BF2
:10C6500051EC100BFCF703FA9DED060B41EC190BA6
:10C6600053EC1A2B51EC100BFCF7A0FA53EC182BDF
:10C67000FCF796FA53EC192BFCF70AFBCDE90601FF
:10C6800049E09DED060B012453EC182B51EC100BE7
:10C69000FCF7E5F99DED060B41EC190B53EC182B5B
:10C6A00051EC100BFCF77CFA53EC192BFCF7F0FA69
:10C6B000CDE906012FE06848A0421FDD02249FED6E
:10C6C000689B9DED060B53EC192B51EC100BFCF7FE
:10C6D0006DFA53EC182BFCF7C2F99DED060B41ECFB
:10C6E000180B53EC192B51EC100BFCF759FA53ECC7
:10C6F000182BFCF7CDFACDE906010CE09DED060BF9
:10C70000032453EC102B9FED580B51EC100BFCF74E
:10C71000BFFACDE906019DED060B53EC102B51EC51
:10C72000100BFCF743FA41EC180B53EC182BFCF7F9
:10C730003DFA41EC190B4E480621B0EE490AF0EEE5
:10C74000690A784401F075F953EC182B51EC100B81
:10C75000FCF72CFA41EC180B4648B0EE490AF0EE13
:10C76000690A0521784401F064F953EC192B51EC66
:10C77000100BFCF71BFA41EC100B51EC180B53ECAF
:10C78000102B002C0EDAFCF76AF99DED061B53EC1A
:10C79000112BFCF70BFA9DED061B53EC112BFCF74C
:10C7A00002FA35E0FCF75BF99DED061B53EC112B0B
:10C7B000FCF7FCF941EC100B2F48784400EBC40067
:10C7C00090ED001B51EC100B53EC112BFCF7E8F92A
:10C7D0009DED061B53EC112BFCF7E2F941EC100B1D
:10C7E0002648784400EBC40090ED001B51EC100B80
:10C7F00053EC112BFCF7D7F941EC100B002DA2BF25
:10C80000BDEC068B02B070BD51EC100B81F0004105
:10C8100041EC100B01E70000000010440000F07F25
:10C82000182D4454FB21F93F182D4454FB21F9BF26
:10C830000000DC3F0000203E0000F33F000000004D
:10C84000000000000000F03F0000E63F0000000094
:10C8500000000000000000400080034000000000D5
:10C86000000000000000F83F000000000000F0BFE2
:10C87000F2C80000A8C8000032C80000EAC70000E3
:10C8800070B56B4E2DED040B2DED028B82B0DDF8F3
:10C890001CC0DDE905235C422CF000411C4341EA49
:10C8A000D474049D22F00040B44205D86C422C435D
:10C8B00040EAD474B4420BD99DED061B9DED040BE8
:10C8C00002B0BDEC028B04B0BDE8704001F052B97B
:10C8D000ACF14054A4F17F641C430BD0022404EA61
:10C8E000AC7444EAD27405439FED538B9FED542BF7
:10C8F00007D015E09DED040B51EC100B02F03CFD50
:10C9000042E0002C11BF012C9DED040B02B0BDECE8
:10C91000028B04BF04B070BD022C38D0032C3BD076
:10C920000B439FED491B9FED4A0B0AD0B14218D132
:10C93000B04209D121F0804120F08040079105905C
:10C940000FE0002A15DA10E0434B7B44002C08BFAF
:10C9500093ED000B0DD0012C10D0022C17D0032C1E
:10C960001AD0B0421DD1002A03DAB0EE410AF0EE2F
:10C97000610A02B0BDEC028B04B070BD93ED000BF8
:10C9800051EC100B81F0004141EC100BF1E7B0EEDF
:10C99000480AF0EE680AECE7B0EE420AF0EE620AEE
:10C9A000E7E7401A00153C28C8BF8DED000B19DCE5
:10C9B000BCF1000FBEBF10F13C0F9FED290B8DEDB8
:10C9C000000B0FDB9DED060B53EC102B9DED040BC4
:10C9D00051EC100BFCF75CF904F02CFC02F0CCFCE1
:10C9E000CDE90001002C08BF9DED000BC1D0012C4A
:10C9F00010D0022C9FED1C0B53EC102B9DED000B67
:10CA000051EC100B0DD0FCF7CBF853EC182BFCF7C6
:10CA1000C7F8B9E7019880F0004001909DED000B48
:10CA2000A7E7FCF7BDF853EC182BFCF7BCF8ABE715
:10CA30000000F07F00000000182D4454FB21094045
:10CA4000182D4454FB2109C0182D4454FB21F9BF73
:10CA5000182D4454FB21F93FA2C70000000000003C
:10CA60000000000000000000075C143326A6A13C73
:10CA700010EE101A08B5444A6846B2EB410F28D9A7
:10CA80004FF0E640B0EB410F94BF00204FF0FF3075
:10CA900000900098002861DB60EE000A10F0010FA2
:10CAA00045D010F0020FDFED391A9FED391A00EE74
:10CAB000E11ADFED381A40EE811A21EEA01AF0EEED
:10CAC000400A40EE010A08BFF1EE600AB0EE600ACB
:10CAD00008BD314B21F0004293423CD911F0004F88
:10CAE000DFED2E0A20EE201ADFED2D0A19BF31EE00
:10CAF000601A71EE200A31EE201A71EE600ABDEE66
:10CB0000E01A11EE100A9FED271A00F0030000EE64
:10CB1000C10A9FED251A009000EEC10A9FED231A6D
:10CB200000EEC10A9FED221A00EEC10AB1E79FEDA7
:10CB3000211A9FED210A10F0020F00EE810A9FEDED
:10CB40001F1A00EE801AB7EE000A00EE810A18BF25
:10CB5000B1EE400A08BD01F05BF89AE710EE100A4A
:10CB60004000B0F17F4F3CBFB7EE000A08BD07D1CF
:10CB70004FF0010001F028F9BDE8084001F038B895
:10CB8000BDE8084001F030B8B61F927E336D4C39D5
:10CB9000DA82083CA0AA2ABE490E494683F9223F00
:10CBA0000000004B0000C93F00A0FD390020A23367
:10CBB0001A61342CB93AB2BACA9F2A3DDDFFFFBED2
:10CBC0002DED020B019820F0004001909DED000B2F
:10CBD00002B07047000000002DE9F04D2DED040B70
:10CBE0002DED0E8B96B0DDE92550279CDDF890A049
:10CBF00025F0004624F00048BAF1000F14BF0121CF
:10CC0000002101EB4502FC4953184A1093422AD3F4
:10CC1000002814BF0123002303EB44030B44F7490E
:10CC20008B4220D358EA00019FEDF59B76D0DFF8C8
:10CC3000D8B35D4503D1BAF1000F05D188E0BAF150
:10CC4000000F08BF002100D0012101EB450111F5C3
:10CC5000001F08D8002814BF0121002101EB440166
:10CC600011F5001F0BD99DED261B9DED240B16B071
:10CC7000BDEC0E8B04B0BDE8F04D00F07BBF00278B
:10CC8000002DBCBFE149884521DAE1498845A8BFAC
:10CC900002271CDAC3451ADCDE4901EB28511429AE
:10CCA00008DDC1F1340220FA02F101FA02F28242F7
:10CCB0000DD108E058B9C1F1140228FA02F101FAC5
:10CCC00002F2424503D101F00101C1F1020756EA27
:10CCD0000A0124D1002C22DA002D18BF022F01D026
:10CCE000012F0AD0022001F06FF816B0BDEC0E8BB8
:10CCF00004B0BDE8F04D00F01BBF022001F064F865
:10CD000000F016FF51EC100B81F0004141EC100BCC
:10CD100016B0BDEC0E8B04B0BDE8F08D18E09FEDB1
:10CD2000BEAB9FEDBF8B002871D1B848804522D1A2
:10CD300005F1804010F5801008BFBAF1000F07D050
:10CD4000B3450ADC002CA8BF9DED260BE0DA0DE010
:10CD5000B0EE490AF0EE690ADAE7002C06DA9DED3A
:10CD6000260B51EC100B81F000416FE0AE48784487
:10CD700090ED000BCCE7D8454DD1002C48DA2EB110
:10CD800086423AD1BAF1000F42D126E0BAF1000F43
:10CD900013D0022001F018F800F006FF8DED020B11
:10CDA0009DED240B8DED000B10EE900A039961F3BD
:10CDB0001E0003909DED020BAAE78DED02AB9DEDE9
:10CDC000240B1AEE901A10EE900A8DED000B61F311
:10CDD0001E0003909DED020B9AE78DED028B9DEDF9
:10CDE000240B18EE901A10EE900A8DED000B61F3F3
:10CDF0001E0003909DED020B8AE709DA9DED240BDE
:10CE000051EC190B53EC102BFBF742FF1EE020E016
:10CE10009DED240B7CE786421BDAB4F1804F0DD0E8
:10CE2000A4F10050B0F1FF5013D1002D11DB9DEDA6
:10CE3000240B51EC100B0AF05DFE07E09DED240B76
:10CE400053EC102B51EC100B00F0C2BC41EC100B5A
:10CE50005EE79DED240B51EC100B04F0EBF9BAF1F9
:10CE6000000FCDE90E0142D19FED710B46B3A6F143
:10CE7000E040B0F17F600CD05E4538D1002D00DA83
:10CE8000A7B3022F0CBF01204FF0FF30FBF76FFF5D
:10CE9000DCE7002D01DD002C0DDA002D01DD002C7A
:10CEA0001FDB002D16DA002C14DB012F08BF9FEDCD
:10CEB000620B3FF42DAFB0EE4A0AF0EE6A0A27E7A4
:10CEC000022F18BF002D0CD0012F0AD1002DFFF624
:10CED0001FAF06E0002DB8BF002C08DA012F3FF489
:10CEE00017AFB0EE480AF0EE680A11E71BE0012028
:10CEF00000EBE57050EA070115D0791EB0EE498AC3
:10CF0000F0EE698A084308BF9FED4D8B4E4800251F
:10CF1000804570DD4D494E48884514DDB0420DDB3B
:10CF2000002C19DB2FE0012000F04EFF16B0BDEC05
:10CF30000E8B04B0BDE8F04D00F026BEB34502DC18
:10CF4000002C09DC1FE0864202DA002C1BDA03E029
:10CF50005E452BDD002C16DD022000F035FF00F0D1
:10CF600023FE8DED020B53EC1A2B51EC180BFBF743
:10CF70001DFECDE900010399019861F31E000390A5
:10CF80009DED020BC4E6022000F01EFF00F01CFE27
:10CF900010EE901A18EE900A8DED020B8DED008BBD
:10CFA00061F31E0003909DED020BB1E69DED0E0BAB
:10CFB00053EC192B51EC100BFBF7F2FD9FED260BF8
:10CFC000CDE9080153EC102B9DED080B51EC100B33
:10CFD000FBF7ECFD9FED221B53EC112BFBF7E3FD60
:10CFE0009DED081B53EC112BFBF7E0FD9FED1E1B85
:10CFF00053EC112B3CE08CE0FFFF1F00FFFF0F0004
:10D00000000000000000F03F0000F03F0000F07F53
:10D010000000404301FCFFFF000000000000F07F23
:10D0200000000000000000007EC3000000000000BF
:10D030000000000000000080000000000000F0FF81
:10D04000000000000000F0BF0000E0410000F043DD
:10D05000FFFFEF3F00000000000000000000D03F95
:10D06000555555555555D53F000000000000E03F8F
:10D07000FBF799FD9DED080B41EC1A0B53EC102BBF
:10D0800051EC100BFBF792FD53EC1A2BFBF78EFDC6
:10D0900041EC1A0B9FEDFE0B53EC102B9DED080B92
:10D0A00051EC100BFBF782FD41EC1B0B9FEDFA0BD3
:10D0B00051EC1A0B53EC102BFBF778FD41EC1A0BDB
:10D0C0009FEDF70B53EC102B9DED080B51EC100B63
:10D0D000FBF76CFD53EC1A2BFBF762FD41EC1A0BCE
:10D0E00051EC1B0B53EC1A2BFBF7B9FC0690CDE966
:10D0F00006519DED060B53EC1B2B51EC100BFBF76F
:10D100004FFD53EC1A2BFBF74EFD41EC100B00F0DA
:10D11000A1B90020B6F5801F0EDA9FEDE30B53ECAA
:10D12000102B9DED0E0B51EC100BFBF73FFDCDE9E5
:10D130000E016FF034000E4600EB2650A0F2FF37D0
:10D14000C6F31300DA4940F07F6646F04056884245
:10D15000D8BF002408DDD7498142C8BF012403DCC1
:10D160000024A6F580167F1CD348784400EBC40049
:10D170000F9690ED00CB9DED0E0B53EC1C2B51EC5C
:10D18000100BFBF70DFD9DED0E0B41EC1B0B53EC53
:10D190001C2B51EC100BFBF762FC41EC100B51EC1B
:10D1A000190B53EC102BFBF773FD41EC1D0B51ECED
:10D1B0001B0B53EC1D2BFBF7F9FC41EC1A0BBF4882
:10D1C0008DED10AB7844109590ED000B4FF00050B2
:10D1D00040EA660000EB84408DED080B00F500206E
:10D1E00009909DED080B53EC1C2B51EC100BFBF739
:10D1F000D7FC9DED0E1B53EC112BFBF7D4FC41EC3F
:10D20000100B53EC102B9DED100B51EC100BFBF79A
:10D21000CDFC9DED080B41EC1C0B53EC102B9DED50
:10D22000100B51EC100BFBF7C1FC53EC1B2BFBF765
:10D23000BAFC53EC1C2BFBF7B3FC53EC1D2BFBF798
:10D24000B5FC41EC1C0B53EC1A2B51EC1A0BFBF701
:10D25000ADFC41EC1B0B9A480621B0EE4B0AF0EEF8
:10D260006B0A784400F0E5FBB0EE401AF0EE601A6D
:10D27000B0EE41DAF0EE61DA53EC1B2B51EC1B0BF4
:10D28000FBF794FC53EC1D2BFBF790FC9DED100B72
:10D2900041EC1B0B53EC1A2B51EC100BFBF7DFFB93
:10D2A00053EC1C2BFBF782FC53EC1B2BFBF7D7FB3F
:10D2B0009DED100B41EC1B0B53EC102B51EC100BA4
:10D2C000FBF774FC41EC1D0B9FED7FEB53EC1E2B29
:10D2D000FBF7C5FB53EC1B2BFBF7C1FB0890CDE91B
:10D2E00008519DED080B53EC1E2B51EC100BFBF776
:10D2F00057FC53EC1D2BFBF753FC53EC1B2BFBF79C
:10D3000052FC9DED080B41EC1D0B53EC102B9DEDD9
:10D31000100B51EC100BFBF749FC41EC1B0B53ECD1
:10D320001A2B51EC1D0BFBF741FC9DED080B41EC5A
:10D330001A0B53EC102B51EC1C0BFBF737FC53EC86
:10D340001A2BFBF78CFB41EC1A0B51EC1B0B53EC2B
:10D350001A2BFBF784FB0C90CDE90C519DED0C0BC7
:10D3600053EC1B2B51EC100BFBF71AFC53EC1A2B54
:10D37000FBF719FC41EC1B0B9FED550B53EC102BED
:10D380009DED0C0B51EC100BFBF710FC41EC1A0B54
:10D390009FED510B51EC1B0B53EC102BFBF706FCD4
:10D3A00041EC1B0B9FED4E0B53EC102B9DED0C0B2A
:10D3B00051EC100BFBF7FAFB53EC1B2BFBF74FFB6D
:10D3C00041EC100B4848784400EBC40090ED001B82
:10D3D00051EC100B53EC112BFBF741FB41EC1B0BF9
:10D3E0003846FBF7C4FCCDE9080153EC1B2B51EC8C
:10D3F0001A0BFBF734FB41EC100B3C48784400EB74
:10D40000C40090ED00CB51EC100B53EC1C2BFBF740
:10D4100026FB9DED081B53EC112BFBF720FB069020
:10D42000CDE906519DED080B53EC102B9DED060B3D
:10D4300051EC100BFBF7B4FB53EC1C2BFBF7B0FBD0
:10D4400053EC1A2BFBF7ACFB53EC1B2BFBF7ABFBA2
:10D4500041EC100B9DED261B53EC102B8DED001BAA
:10D4600000959DED260B51EC100BFBF79FFB9DEDFE
:10D47000000B41EC1A0B53EC102B9DED260B51ECDD
:10D48000100BFBF78DFB9DED061B53EC112B2FE0D2
:10D49000000000604715F73FFE822B654715F73FF8
:10D4A00044DF5DF80BAE543E000000000000404336
:10D4B0008E9803007AB60B00FABE000028BF000069
:10D4C00032BE000000000000000000000000084024
:10D4D000000000E009C7EE3FFD033ADC09C7EE3F5C
:10D4E000F5015B14E02F3EBEBEBC000078BC00001E
:10D4F000FBF75CFB53EC1A2BFBF7B1FA9DED060B27
:10D5000041EC1A0B53EC102B9DED000B51EC100B62
:10D51000FBF74CFBCDE90C019DED0C0B51EC1A0B0C
:10D5200053EC102BFBF79BFACDE902010C46AA49FC
:10D530008C422FDB611A084318D19DED0C0B53EC84
:10D54000102B9DED020B51EC100BFBF729FB41EC6E
:10D550001B0B9FEDA30B51EC1A0B53EC102BFBF79D
:10D560007EFA53EC1B2BFBF783FE2DD2022000F03A
:10D570002BFC00F019FB10EE901A18EE900A8DEDBE
:10D58000020B8DED008B61F31E0003909DED020BED
:10D59000FFF7BEBB944A24F00041914214D3934953
:10D5A000214408437FF4EFAC9DED0C0B53EC102BA2
:10D5B0009DED020B51EC100BFBF7F2FA53EC1A2B1A
:10D5C000FBF756FE7FF6DFAC24F000408849894A1D
:10D5D000002601EB205182422BDA481C4FF48011C7
:10D5E00021FA00F02044844AC0F30A517A44A1F29F
:10D5F000FF3192ED000B814A8DED080BCA4020EA05
:10D600000202C0F3130040F48010C1F1140120FAAB
:10D6100001F60992002CB8BF76429DED080B53EC41
:10D62000102B9DED0C0B51EC100BFBF7B9FACDE96B
:10D630000C019DED0C0B51EC1A0B53EC102BFBF76E
:10D640000EFA9FED6F0B0890CDE9085153EC102BAB
:10D650009DED080B51EC100BFBF7A8FA41EC1B0BEE
:10D660009FED690B53EC102B9DED080B51EC100B4B
:10D67000FBF79CFA9DED0C0B41EC1C0B53EC102BB3
:10D680009DED080B51EC100BFBF78AFA53EC1A2BAB
:10D69000FBF789FA9FED5E1B53EC112BFBF786FA23
:10D6A00053EC1C2BFBF7DBF941EC1A0B51EC1B0B79
:10D6B00053EC1A2BFBF7D3F9CDE902019DED020BD8
:10D6C00053EC1B2B51EC100BFBF76AFA53EC1A2BA3
:10D6D000FBF769FA9DED020B41EC1A0B53EC102B92
:10D6E00051EC100BFBF762FACDE908014A489DEDB9
:10D6F000080B0521784400F09CF99DED081B51ECC6
:10D70000100B53EC112BFBF751FA9DED021B53EC60
:10D71000112BFBF748FACDE906019DED020B53EC06
:10D720001A2B51EC100BFBF741FA53EC1A2BFBF7B9
:10D7300096F99FED3B0B41EC1A0B53EC102B9DED32
:10D74000060B51EC100BFBF72BFA9DED060B41EC91
:10D750001B0B53EC102B9DED020B51EC100BFBF748
:10D7600025FA53EC1B2BFBF793FA53EC1A2BFBF720
:10D7700017FA9DED021B53EC112BFBF711FA53EC3A
:10D78000192BFBF710FACDE9020101EB0650011548
:10D790000029C8BF039015DC9DED020B324651EC09
:10D7A000100BFBF7D8FCFEF791FC042808BF00F033
:10D7B0000BFA32469DED020B51EC100BFBF7CBFC44
:10D7C000CDE902019DED020B51EC180B53EC102B2F
:10D7D000FBF7ECF9FFF73ABB0000904000000000B7
:10D7E000FE822B654715973C00CC904000346F3F7C
:10D7F00001FCFFFF0000E03F00BB0000FFFF0F0047
:10D8000000000000432EE63F396CA80C615C20BE8E
:10D81000EF39FAFE422EE63FD0B9000000000000CA
:10D82000000000000000004000B510EE101A2DEDC1
:10D83000028B81B0524A6846B2EB410F2ED94FF0AD
:10D84000E640B0EB410F94BF00204FF0FF30009056
:10D850000098B0EE408A00286ADB10F0010F4BD030
:10D8600068EE080A9FED471A9FED470A00EE810A0D
:10D870009FED461A10F0020F00EE801AB7EE000A74
:10D8800000EE810A02BF01B0BDEC028B00BD00BFFB
:10D8900001B0B1EE400ABDEC028B00BD3C4B21F063
:10D8A0000042934241D911F0004FDFED3A0A20EED9
:10D8B000201ADFED390A19BF31EE601A71EE200A25
:10D8C00031EE201A71EE600ABDEEE01A11EE100A78
:10D8D0009FED321A00F0030000EEC10A9FED301AEE
:10D8E000009000EEC10A9FED2F1A00EEC10A9FEDD5
:10D8F0002E1A00EEC10AABE728EE080A9FED2B1A9C
:10D90000DFED2B0A10F0020F40EE410A9FED291ABD
:10D9100000EE201A61EE000AB0EE480A08EE200A76
:10D92000B6D101B0BDEC028B00BD00F071F98FE7FC
:10D9300018EE100A4000B0F17F4F0DD218EE100A19
:10D94000FEF7DCFB042808BF00F05AF9B0EE480AE5
:10D9500001B0BDEC028B00BD09D1012000F034FA0A
:10D9600001B0BDEC028B5DF804EB00F041B901B0F1
:10D97000B0EE480ABDEC028B5DF804EB00F034B960
:10D98000B61F927EB93AB2BACA9F2A3DDDFFFFBEEA
:10D99000490E494683F9223F0000004B0000C93F71
:10D9A00000A0FD390020A2331A61342C336D4C39AC
:10D9B000DA82083CA0AA2ABE00B52DED048BB0EE99
:10D9C000409AF0EE609A83B051EC190BFBF7DAFB4A
:10D9D00041EC180B18EE100A18EE901A8DED008B22
:10D9E000002818BF0120084320F00040C0F17F60EC
:10D9F00000F1E040C00F14D019EE101A19EE900A91
:10DA00008DED009B002918BF0121084320F0004044
:10DA1000C0F17F6000F1E040C00F04BF012000F0C2
:10DA2000D3F9B0EE480A03B0F0EE680ABDEC048BFF
:10DA300000BD70B504462DED028B4D1E00EBC500F8
:10DA4000B0EE408AF0EE608A90ED000B35F00600F3
:10DA500017D053EC182B51EC100BFBF7A7F841EC47
:10DA6000100B6D1E04EBC50090ED001B51EC100B6C
:10DA700053EC112BFAF7F3FF41EC100B35F00600D5
:10DA8000E7D1022D36D0042D1CD0062D1CBFBDECD5
:10DA9000028B70BD53EC182B51EC100BFBF786F882
:10DAA00094ED0A1B53EC112BFAF7D9FF53EC182B0A
:10DAB000FBF77CF894ED081B53EC112BFAF7CFFF22
:10DAC00041EC100B53EC182B51EC100BFBF76EF8DC
:10DAD00094ED061B53EC112BFAF7C1FF53EC182BF6
